{
  "_format": "hh-sol-artifact-1",
  "contractName": "DHMISGame",
  "sourceName": "contracts/DHMISGame.sol",
  "abi": [
    {
      "inputs": [
        {
          "internalType": "string[]",
          "name": "characterNames",
          "type": "string[]"
        },
        {
          "internalType": "string[]",
          "name": "characterImageURIs",
          "type": "string[]"
        },
        {
          "internalType": "uint256[]",
          "name": "characterHp",
          "type": "uint256[]"
        },
        {
          "internalType": "uint256[]",
          "name": "characterHpMod",
          "type": "uint256[]"
        },
        {
          "internalType": "uint256[]",
          "name": "characterAttackDmg",
          "type": "uint256[]"
        },
        {
          "internalType": "uint256[]",
          "name": "characterAttackDmgMod",
          "type": "uint256[]"
        },
        {
          "internalType": "uint256[]",
          "name": "characterCriticalChance",
          "type": "uint256[]"
        },
        {
          "internalType": "string",
          "name": "bossName",
          "type": "string"
        },
        {
          "internalType": "string",
          "name": "bossImageURI",
          "type": "string"
        },
        {
          "internalType": "uint256",
          "name": "bossHp",
          "type": "uint256"
        },
        {
          "internalType": "uint256",
          "name": "bossAttackDamage",
          "type": "uint256"
        }
      ],
      "stateMutability": "nonpayable",
      "type": "constructor"
    },
    {
      "anonymous": false,
      "inputs": [
        {
          "indexed": true,
          "internalType": "address",
          "name": "owner",
          "type": "address"
        },
        {
          "indexed": true,
          "internalType": "address",
          "name": "approved",
          "type": "address"
        },
        {
          "indexed": true,
          "internalType": "uint256",
          "name": "tokenId",
          "type": "uint256"
        }
      ],
      "name": "Approval",
      "type": "event"
    },
    {
      "anonymous": false,
      "inputs": [
        {
          "indexed": true,
          "internalType": "address",
          "name": "owner",
          "type": "address"
        },
        {
          "indexed": true,
          "internalType": "address",
          "name": "operator",
          "type": "address"
        },
        {
          "indexed": false,
          "internalType": "bool",
          "name": "approved",
          "type": "bool"
        }
      ],
      "name": "ApprovalForAll",
      "type": "event"
    },
    {
      "anonymous": false,
      "inputs": [
        {
          "indexed": false,
          "internalType": "uint256",
          "name": "newPlayerHp",
          "type": "uint256"
        },
        {
          "indexed": false,
          "internalType": "uint256",
          "name": "newBossHp",
          "type": "uint256"
        },
        {
          "indexed": false,
          "internalType": "bool",
          "name": "bossDead",
          "type": "bool"
        },
        {
          "indexed": false,
          "internalType": "bool",
          "name": "isCriticalHit",
          "type": "bool"
        }
      ],
      "name": "AttackComplete",
      "type": "event"
    },
    {
      "anonymous": false,
      "inputs": [],
      "name": "CharacterHealed",
      "type": "event"
    },
    {
      "anonymous": false,
      "inputs": [
        {
          "indexed": false,
          "internalType": "address",
          "name": "sender",
          "type": "address"
        },
        {
          "indexed": false,
          "internalType": "uint256",
          "name": "tokenId",
          "type": "uint256"
        },
        {
          "indexed": false,
          "internalType": "uint256",
          "name": "characterIndex",
          "type": "uint256"
        }
      ],
      "name": "CharacterNFTMinted",
      "type": "event"
    },
    {
      "anonymous": false,
      "inputs": [
        {
          "indexed": true,
          "internalType": "address",
          "name": "previousOwner",
          "type": "address"
        },
        {
          "indexed": true,
          "internalType": "address",
          "name": "newOwner",
          "type": "address"
        }
      ],
      "name": "OwnershipTransferred",
      "type": "event"
    },
    {
      "anonymous": false,
      "inputs": [
        {
          "indexed": false,
          "internalType": "address",
          "name": "sender",
          "type": "address"
        },
        {
          "indexed": false,
          "internalType": "uint256",
          "name": "characterId",
          "type": "uint256"
        }
      ],
      "name": "RandomNumberRequested",
      "type": "event"
    },
    {
      "anonymous": false,
      "inputs": [
        {
          "indexed": true,
          "internalType": "address",
          "name": "from",
          "type": "address"
        },
        {
          "indexed": true,
          "internalType": "address",
          "name": "to",
          "type": "address"
        },
        {
          "indexed": true,
          "internalType": "uint256",
          "name": "tokenId",
          "type": "uint256"
        }
      ],
      "name": "Transfer",
      "type": "event"
    },
    {
      "inputs": [
        {
          "internalType": "address",
          "name": "to",
          "type": "address"
        },
        {
          "internalType": "uint256",
          "name": "tokenId",
          "type": "uint256"
        }
      ],
      "name": "approve",
      "outputs": [],
      "stateMutability": "nonpayable",
      "type": "function"
    },
    {
      "inputs": [],
      "name": "attackBoss",
      "outputs": [],
      "stateMutability": "nonpayable",
      "type": "function"
    },
    {
      "inputs": [
        {
          "internalType": "address",
          "name": "owner",
          "type": "address"
        }
      ],
      "name": "balanceOf",
      "outputs": [
        {
          "internalType": "uint256",
          "name": "",
          "type": "uint256"
        }
      ],
      "stateMutability": "view",
      "type": "function"
    },
    {
      "inputs": [],
      "name": "bigBoss",
      "outputs": [
        {
          "internalType": "string",
          "name": "name",
          "type": "string"
        },
        {
          "internalType": "string",
          "name": "imageURI",
          "type": "string"
        },
        {
          "internalType": "uint256",
          "name": "hp",
          "type": "uint256"
        },
        {
          "internalType": "uint256",
          "name": "maxHp",
          "type": "uint256"
        },
        {
          "internalType": "uint256",
          "name": "attackDamage",
          "type": "uint256"
        }
      ],
      "stateMutability": "view",
      "type": "function"
    },
    {
      "inputs": [
        {
          "internalType": "uint256",
          "name": "",
          "type": "uint256"
        }
      ],
      "name": "bossKillers",
      "outputs": [
        {
          "internalType": "address",
          "name": "",
          "type": "address"
        }
      ],
      "stateMutability": "view",
      "type": "function"
    },
    {
      "inputs": [],
      "name": "checkIfUserHasNFT",
      "outputs": [
        {
          "components": [
            {
              "internalType": "uint256",
              "name": "characterIndex",
              "type": "uint256"
            },
            {
              "internalType": "string",
              "name": "name",
              "type": "string"
            },
            {
              "internalType": "string",
              "name": "imageURI",
              "type": "string"
            },
            {
              "internalType": "uint256",
              "name": "hp",
              "type": "uint256"
            },
            {
              "internalType": "uint256",
              "name": "hpMod",
              "type": "uint256"
            },
            {
              "internalType": "uint256",
              "name": "maxHp",
              "type": "uint256"
            },
            {
              "internalType": "uint256",
              "name": "attackDamage",
              "type": "uint256"
            },
            {
              "internalType": "uint256",
              "name": "attackDamageMod",
              "type": "uint256"
            },
            {
              "internalType": "uint256",
              "name": "criticalChance",
              "type": "uint256"
            }
          ],
          "internalType": "struct DHMISGame.CharacterAttributes",
          "name": "",
          "type": "tuple"
        }
      ],
      "stateMutability": "view",
      "type": "function"
    },
    {
      "inputs": [
        {
          "internalType": "uint256",
          "name": "_characterIndex",
          "type": "uint256"
        }
      ],
      "name": "enterGame",
      "outputs": [],
      "stateMutability": "payable",
      "type": "function"
    },
    {
      "inputs": [],
      "name": "getAllDefaultCharacters",
      "outputs": [
        {
          "components": [
            {
              "internalType": "uint256",
              "name": "characterIndex",
              "type": "uint256"
            },
            {
              "internalType": "string",
              "name": "name",
              "type": "string"
            },
            {
              "internalType": "string",
              "name": "imageURI",
              "type": "string"
            },
            {
              "internalType": "uint256",
              "name": "hp",
              "type": "uint256"
            },
            {
              "internalType": "uint256",
              "name": "hpMod",
              "type": "uint256"
            },
            {
              "internalType": "uint256",
              "name": "maxHp",
              "type": "uint256"
            },
            {
              "internalType": "uint256",
              "name": "attackDamage",
              "type": "uint256"
            },
            {
              "internalType": "uint256",
              "name": "attackDamageMod",
              "type": "uint256"
            },
            {
              "internalType": "uint256",
              "name": "criticalChance",
              "type": "uint256"
            }
          ],
          "internalType": "struct DHMISGame.CharacterAttributes[]",
          "name": "",
          "type": "tuple[]"
        }
      ],
      "stateMutability": "view",
      "type": "function"
    },
    {
      "inputs": [],
      "name": "getAllNftHolderAddresses",
      "outputs": [
        {
          "internalType": "address[]",
          "name": "",
          "type": "address[]"
        }
      ],
      "stateMutability": "view",
      "type": "function"
    },
    {
      "inputs": [
        {
          "internalType": "uint256",
          "name": "tokenId",
          "type": "uint256"
        }
      ],
      "name": "getApproved",
      "outputs": [
        {
          "internalType": "address",
          "name": "",
          "type": "address"
        }
      ],
      "stateMutability": "view",
      "type": "function"
    },
    {
      "inputs": [],
      "name": "getBigBoss",
      "outputs": [
        {
          "components": [
            {
              "internalType": "string",
              "name": "name",
              "type": "string"
            },
            {
              "internalType": "string",
              "name": "imageURI",
              "type": "string"
            },
            {
              "internalType": "uint256",
              "name": "hp",
              "type": "uint256"
            },
            {
              "internalType": "uint256",
              "name": "maxHp",
              "type": "uint256"
            },
            {
              "internalType": "uint256",
              "name": "attackDamage",
              "type": "uint256"
            }
          ],
          "internalType": "struct DHMISGame.BigBoss",
          "name": "",
          "type": "tuple"
        }
      ],
      "stateMutability": "view",
      "type": "function"
    },
    {
      "inputs": [],
      "name": "getBossKillers",
      "outputs": [
        {
          "internalType": "address[]",
          "name": "",
          "type": "address[]"
        }
      ],
      "stateMutability": "view",
      "type": "function"
    },
    {
      "inputs": [
        {
          "internalType": "address",
          "name": "_address",
          "type": "address"
        }
      ],
      "name": "getOneTokenByAddress",
      "outputs": [
        {
          "components": [
            {
              "internalType": "uint256",
              "name": "characterIndex",
              "type": "uint256"
            },
            {
              "internalType": "string",
              "name": "name",
              "type": "string"
            },
            {
              "internalType": "string",
              "name": "imageURI",
              "type": "string"
            },
            {
              "internalType": "uint256",
              "name": "hp",
              "type": "uint256"
            },
            {
              "internalType": "uint256",
              "name": "hpMod",
              "type": "uint256"
            },
            {
              "internalType": "uint256",
              "name": "maxHp",
              "type": "uint256"
            },
            {
              "internalType": "uint256",
              "name": "attackDamage",
              "type": "uint256"
            },
            {
              "internalType": "uint256",
              "name": "attackDamageMod",
              "type": "uint256"
            },
            {
              "internalType": "uint256",
              "name": "criticalChance",
              "type": "uint256"
            }
          ],
          "internalType": "struct DHMISGame.CharacterAttributes",
          "name": "",
          "type": "tuple"
        }
      ],
      "stateMutability": "view",
      "type": "function"
    },
    {
      "inputs": [
        {
          "internalType": "address",
          "name": "owner",
          "type": "address"
        },
        {
          "internalType": "address",
          "name": "operator",
          "type": "address"
        }
      ],
      "name": "isApprovedForAll",
      "outputs": [
        {
          "internalType": "bool",
          "name": "",
          "type": "bool"
        }
      ],
      "stateMutability": "view",
      "type": "function"
    },
    {
      "inputs": [
        {
          "internalType": "address",
          "name": "_txnSender",
          "type": "address"
        },
        {
          "internalType": "uint256",
          "name": "_characterIndex",
          "type": "uint256"
        },
        {
          "internalType": "uint256",
          "name": "_randomness",
          "type": "uint256"
        }
      ],
      "name": "mintCharacterNFT",
      "outputs": [],
      "stateMutability": "nonpayable",
      "type": "function"
    },
    {
      "inputs": [],
      "name": "name",
      "outputs": [
        {
          "internalType": "string",
          "name": "",
          "type": "string"
        }
      ],
      "stateMutability": "view",
      "type": "function"
    },
    {
      "inputs": [
        {
          "internalType": "uint256",
          "name": "",
          "type": "uint256"
        }
      ],
      "name": "nftHolderAddresses",
      "outputs": [
        {
          "internalType": "address",
          "name": "",
          "type": "address"
        }
      ],
      "stateMutability": "view",
      "type": "function"
    },
    {
      "inputs": [
        {
          "internalType": "uint256",
          "name": "",
          "type": "uint256"
        }
      ],
      "name": "nftHolderAttributes",
      "outputs": [
        {
          "internalType": "uint256",
          "name": "characterIndex",
          "type": "uint256"
        },
        {
          "internalType": "string",
          "name": "name",
          "type": "string"
        },
        {
          "internalType": "string",
          "name": "imageURI",
          "type": "string"
        },
        {
          "internalType": "uint256",
          "name": "hp",
          "type": "uint256"
        },
        {
          "internalType": "uint256",
          "name": "hpMod",
          "type": "uint256"
        },
        {
          "internalType": "uint256",
          "name": "maxHp",
          "type": "uint256"
        },
        {
          "internalType": "uint256",
          "name": "attackDamage",
          "type": "uint256"
        },
        {
          "internalType": "uint256",
          "name": "attackDamageMod",
          "type": "uint256"
        },
        {
          "internalType": "uint256",
          "name": "criticalChance",
          "type": "uint256"
        }
      ],
      "stateMutability": "view",
      "type": "function"
    },
    {
      "inputs": [
        {
          "internalType": "address",
          "name": "",
          "type": "address"
        }
      ],
      "name": "nftHolders",
      "outputs": [
        {
          "internalType": "uint256",
          "name": "",
          "type": "uint256"
        }
      ],
      "stateMutability": "view",
      "type": "function"
    },
    {
      "inputs": [],
      "name": "owner",
      "outputs": [
        {
          "internalType": "address",
          "name": "",
          "type": "address"
        }
      ],
      "stateMutability": "view",
      "type": "function"
    },
    {
      "inputs": [
        {
          "internalType": "uint256",
          "name": "tokenId",
          "type": "uint256"
        }
      ],
      "name": "ownerOf",
      "outputs": [
        {
          "internalType": "address",
          "name": "",
          "type": "address"
        }
      ],
      "stateMutability": "view",
      "type": "function"
    },
    {
      "inputs": [],
      "name": "randomResult",
      "outputs": [
        {
          "internalType": "uint256",
          "name": "",
          "type": "uint256"
        }
      ],
      "stateMutability": "view",
      "type": "function"
    },
    {
      "inputs": [
        {
          "internalType": "bytes32",
          "name": "requestId",
          "type": "bytes32"
        },
        {
          "internalType": "uint256",
          "name": "randomness",
          "type": "uint256"
        }
      ],
      "name": "rawFulfillRandomness",
      "outputs": [],
      "stateMutability": "nonpayable",
      "type": "function"
    },
    {
      "inputs": [],
      "name": "renounceOwnership",
      "outputs": [],
      "stateMutability": "nonpayable",
      "type": "function"
    },
    {
      "inputs": [],
      "name": "restoreHealth",
      "outputs": [],
      "stateMutability": "payable",
      "type": "function"
    },
    {
      "inputs": [
        {
          "internalType": "address",
          "name": "from",
          "type": "address"
        },
        {
          "internalType": "address",
          "name": "to",
          "type": "address"
        },
        {
          "internalType": "uint256",
          "name": "tokenId",
          "type": "uint256"
        }
      ],
      "name": "safeTransferFrom",
      "outputs": [],
      "stateMutability": "nonpayable",
      "type": "function"
    },
    {
      "inputs": [
        {
          "internalType": "address",
          "name": "from",
          "type": "address"
        },
        {
          "internalType": "address",
          "name": "to",
          "type": "address"
        },
        {
          "internalType": "uint256",
          "name": "tokenId",
          "type": "uint256"
        },
        {
          "internalType": "bytes",
          "name": "_data",
          "type": "bytes"
        }
      ],
      "name": "safeTransferFrom",
      "outputs": [],
      "stateMutability": "nonpayable",
      "type": "function"
    },
    {
      "inputs": [
        {
          "internalType": "address",
          "name": "operator",
          "type": "address"
        },
        {
          "internalType": "bool",
          "name": "approved",
          "type": "bool"
        }
      ],
      "name": "setApprovalForAll",
      "outputs": [],
      "stateMutability": "nonpayable",
      "type": "function"
    },
    {
      "inputs": [
        {
          "internalType": "address",
          "name": "_address",
          "type": "address"
        }
      ],
      "name": "setAttackContract",
      "outputs": [],
      "stateMutability": "nonpayable",
      "type": "function"
    },
    {
      "inputs": [
        {
          "internalType": "bytes4",
          "name": "interfaceId",
          "type": "bytes4"
        }
      ],
      "name": "supportsInterface",
      "outputs": [
        {
          "internalType": "bool",
          "name": "",
          "type": "bool"
        }
      ],
      "stateMutability": "view",
      "type": "function"
    },
    {
      "inputs": [],
      "name": "symbol",
      "outputs": [
        {
          "internalType": "string",
          "name": "",
          "type": "string"
        }
      ],
      "stateMutability": "view",
      "type": "function"
    },
    {
      "inputs": [
        {
          "internalType": "uint256",
          "name": "_tokenId",
          "type": "uint256"
        }
      ],
      "name": "tokenURI",
      "outputs": [
        {
          "internalType": "string",
          "name": "",
          "type": "string"
        }
      ],
      "stateMutability": "view",
      "type": "function"
    },
    {
      "inputs": [
        {
          "internalType": "address",
          "name": "from",
          "type": "address"
        },
        {
          "internalType": "address",
          "name": "to",
          "type": "address"
        },
        {
          "internalType": "uint256",
          "name": "tokenId",
          "type": "uint256"
        }
      ],
      "name": "transferFrom",
      "outputs": [],
      "stateMutability": "nonpayable",
      "type": "function"
    },
    {
      "inputs": [
        {
          "internalType": "address",
          "name": "newOwner",
          "type": "address"
        }
      ],
      "name": "transferOwnership",
      "outputs": [],
      "stateMutability": "nonpayable",
      "type": "function"
    },
    {
      "inputs": [],
      "name": "withdrawLink",
      "outputs": [],
      "stateMutability": "nonpayable",
      "type": "function"
    }
  ],
  "bytecode": "0x60c06040523480156200001157600080fd5b5060405162006d5a38038062006d5a833981810160405281019062000037919062000abe565b73b3dccb4cf7a26f6cf6b120cf5a73875b7bbc655b7301be23585060835e02b77ef475b0cc51aa1e07096040518060400160405280600581526020017f44484d49530000000000000000000000000000000000000000000000000000008152506040518060400160405280600581526020017f44484d49530000000000000000000000000000000000000000000000000000008152508160009080519060200190620000e592919062000851565b508060019080519060200190620000fe92919062000851565b5050508173ffffffffffffffffffffffffffffffffffffffff1660a08173ffffffffffffffffffffffffffffffffffffffff1660601b815250508073ffffffffffffffffffffffffffffffffffffffff1660808173ffffffffffffffffffffffffffffffffffffffff1660601b81525050505062000191620001856200076d60201b60201c565b6200077560201b60201c565b7f2ed0feb3e7fd2022120aa84fab1945545a9f2ffc9076fd6156fa96eaff4c131160001b60158190555067016345785d8a00006016819055506040518060a0016040528085815260200184815260200183815260200183815260200182815250600f60008201518160000190805190602001906200021192919062000851565b5060208201518160010190805190602001906200023092919062000851565b5060408201518160020155606082015181600301556080820151816004015590505060005b8b518110156200074457600a6040518061012001604052808381526020018e8481518110620002ad577f4e487b7100000000000000000000000000000000000000000000000000000000600052603260045260246000fd5b602002602001015181526020018d8481518110620002f4577f4e487b7100000000000000000000000000000000000000000000000000000000600052603260045260246000fd5b602002602001015181526020018c84815181106200033b577f4e487b7100000000000000000000000000000000000000000000000000000000600052603260045260246000fd5b602002602001015181526020018b848151811062000382577f4e487b7100000000000000000000000000000000000000000000000000000000600052603260045260246000fd5b602002602001015181526020018c8481518110620003c9577f4e487b7100000000000000000000000000000000000000000000000000000000600052603260045260246000fd5b602002602001015181526020018a848151811062000410577f4e487b7100000000000000000000000000000000000000000000000000000000600052603260045260246000fd5b6020026020010151815260200189848151811062000457577f4e487b7100000000000000000000000000000000000000000000000000000000600052603260045260246000fd5b602002602001015181526020018884815181106200049e577f4e487b7100000000000000000000000000000000000000000000000000000000600052603260045260246000fd5b60200260200101518152509080600181540180825580915050600190039060005260206000209060090201600090919091909150600082015181600001556020820151816001019080519060200190620004fa92919062000851565b5060408201518160020190805190602001906200051992919062000851565b50606082015181600301556080820151816004015560a0820151816005015560c0820151816006015560e08201518160070155610100820151816008015550506000600a828154811062000596577f4e487b7100000000000000000000000000000000000000000000000000000000600052603260045260246000fd5b90600052602060002090600902016040518061012001604052908160008201548152602001600182018054620005cc9062000e08565b80601f0160208091040260200160405190810160405280929190818152602001828054620005fa9062000e08565b80156200064b5780601f106200061f576101008083540402835291602001916200064b565b820191906000526020600020905b8154815290600101906020018083116200062d57829003601f168201915b50505050508152602001600282018054620006669062000e08565b80601f0160208091040260200160405190810160405280929190818152602001828054620006949062000e08565b8015620006e55780601f10620006b957610100808354040283529160200191620006e5565b820191906000526020600020905b815481529060010190602001808311620006c757829003601f168201915b5050505050815260200160038201548152602001600482015481526020016005820154815260200160068201548152602001600782015481526020016008820154815250509050506001816200073c919062000d6b565b905062000255565b506200075c60096200083b60201b62002c3d1760201c565b505050505050505050505062000ee5565b600033905090565b6000600760009054906101000a900473ffffffffffffffffffffffffffffffffffffffff16905081600760006101000a81548173ffffffffffffffffffffffffffffffffffffffff021916908373ffffffffffffffffffffffffffffffffffffffff1602179055508173ffffffffffffffffffffffffffffffffffffffff168173ffffffffffffffffffffffffffffffffffffffff167f8be0079c531659141344cd1fd0a4f28419497f9722a3daafe3b4186f6b6457e060405160405180910390a35050565b6001816000016000828254019250508190555050565b8280546200085f9062000e08565b90600052602060002090601f016020900481019282620008835760008555620008cf565b82601f106200089e57805160ff1916838001178555620008cf565b82800160010185558215620008cf579182015b82811115620008ce578251825591602001919060010190620008b1565b5b509050620008de9190620008e2565b5090565b5b80821115620008fd576000816000905550600101620008e3565b5090565b600062000918620009128462000cda565b62000ca6565b9050808382526020820190508260005b858110156200095c578151850162000941888262000a7a565b84526020840193506020830192505060018101905062000928565b5050509392505050565b60006200097d620009778462000d09565b62000ca6565b905080838252602082019050828560208602820111156200099d57600080fd5b60005b85811015620009d15781620009b6888262000aa7565b845260208401935060208301925050600181019050620009a0565b5050509392505050565b6000620009f2620009ec8462000d38565b62000ca6565b90508281526020810184848401111562000a0b57600080fd5b62000a1884828562000dd2565b509392505050565b600082601f83011262000a3257600080fd5b815162000a4484826020860162000901565b91505092915050565b600082601f83011262000a5f57600080fd5b815162000a7184826020860162000966565b91505092915050565b600082601f83011262000a8c57600080fd5b815162000a9e848260208601620009db565b91505092915050565b60008151905062000ab88162000ecb565b92915050565b60008060008060008060008060008060006101608c8e03121562000ae157600080fd5b60008c015167ffffffffffffffff81111562000afc57600080fd5b62000b0a8e828f0162000a20565b9b505060208c015167ffffffffffffffff81111562000b2857600080fd5b62000b368e828f0162000a20565b9a505060408c015167ffffffffffffffff81111562000b5457600080fd5b62000b628e828f0162000a4d565b99505060608c015167ffffffffffffffff81111562000b8057600080fd5b62000b8e8e828f0162000a4d565b98505060808c015167ffffffffffffffff81111562000bac57600080fd5b62000bba8e828f0162000a4d565b97505060a08c015167ffffffffffffffff81111562000bd857600080fd5b62000be68e828f0162000a4d565b96505060c08c015167ffffffffffffffff81111562000c0457600080fd5b62000c128e828f0162000a4d565b95505060e08c015167ffffffffffffffff81111562000c3057600080fd5b62000c3e8e828f0162000a7a565b9450506101008c015167ffffffffffffffff81111562000c5d57600080fd5b62000c6b8e828f0162000a7a565b93505061012062000c7f8e828f0162000aa7565b92505061014062000c938e828f0162000aa7565b9150509295989b509295989b9093969950565b6000604051905081810181811067ffffffffffffffff8211171562000cd05762000ccf62000e9c565b5b8060405250919050565b600067ffffffffffffffff82111562000cf85762000cf762000e9c565b5b602082029050602081019050919050565b600067ffffffffffffffff82111562000d275762000d2662000e9c565b5b602082029050602081019050919050565b600067ffffffffffffffff82111562000d565762000d5562000e9c565b5b601f19601f8301169050602081019050919050565b600062000d788262000dc8565b915062000d858362000dc8565b9250827fffffffffffffffffffffffffffffffffffffffffffffffffffffffffffffffff0382111562000dbd5762000dbc62000e3e565b5b828201905092915050565b6000819050919050565b60005b8381101562000df257808201518184015260208101905062000dd5565b8381111562000e02576000848401525b50505050565b6000600282049050600182168062000e2157607f821691505b6020821081141562000e385762000e3762000e6d565b5b50919050565b7f4e487b7100000000000000000000000000000000000000000000000000000000600052601160045260246000fd5b7f4e487b7100000000000000000000000000000000000000000000000000000000600052602260045260246000fd5b7f4e487b7100000000000000000000000000000000000000000000000000000000600052604160045260246000fd5b62000ed68162000dc8565b811462000ee257600080fd5b50565b60805160601c60a05160601c615e2d62000f2d600039600081816119b401526138b501526000818161185c015281816118990152818161312901526138790152615e2d6000f3fe6080604052600436106102045760003560e01c806387faaeb911610118578063b953084e116100a0578063d06a1d7d1161006f578063d06a1d7d14610747578063d4f24c5b14610784578063e985e9c51461079b578063ec6996b8146107d8578063f2fde38b1461081557610204565b8063b953084e14610689578063ba982d53146106b4578063c87b56dd146106df578063c8cf27f41461071c57610204565b806395d89b41116100e757806395d89b411461059857806398da4c95146105c3578063a22cb46514610608578063a9c3267914610631578063b88d4fde1461066057610204565b806387faaeb9146105235780638da5cb5b1461052d5780638dc654a21461055857806394985ddd1461056f57610204565b806342619f661161019b5780636352211e1161016a5780636352211e1461042a57806370a0823114610467578063715018a6146104a45780637397c85e146104bb5780637df124a1146104e657610204565b806342619f661461039157806342842e0e146103bc57806343d6582b146103e557806361453a131461040157610204565b8063081812fc116101d7578063081812fc146102c5578063095ea7b3146103025780630fd701811461032b57806323b872dd1461036857610204565b806301ffc9a7146102095780630665f9611461024657806306fdde031461027157806307e0742c1461029c575b600080fd5b34801561021557600080fd5b50610230600480360381019061022b91906142a2565b61083e565b60405161023d91906153cf565b60405180910390f35b34801561025257600080fd5b5061025b610920565b604051610268919061571b565b60405180910390f35b34801561027d57600080fd5b50610286610a7c565b6040516102939190615458565b60405180910390f35b3480156102a857600080fd5b506102c360048036038101906102be9190614047565b610b0e565b005b3480156102d157600080fd5b506102ec60048036038101906102e791906142f4565b610bce565b6040516102f99190615286565b60405180910390f35b34801561030e57600080fd5b50610329600480360381019061032491906141b2565b610c53565b005b34801561033757600080fd5b50610352600480360381019061034d91906142f4565b610d6b565b60405161035f9190615286565b60405180910390f35b34801561037457600080fd5b5061038f600480360381019061038a91906140ac565b610daa565b005b34801561039d57600080fd5b506103a6610e0a565b6040516103b3919061575f565b60405180910390f35b3480156103c857600080fd5b506103e360048036038101906103de91906140ac565b610e10565b005b6103ff60048036038101906103fa91906142f4565b610e30565b005b34801561040d57600080fd5b50610428600480360381019061042391906141ee565b610e51565b005b34801561043657600080fd5b50610451600480360381019061044c91906142f4565b61146f565b60405161045e9190615286565b60405180910390f35b34801561047357600080fd5b5061048e60048036038101906104899190614047565b611521565b60405161049b919061575f565b60405180910390f35b3480156104b057600080fd5b506104b96115d9565b005b3480156104c757600080fd5b506104d0611661565b6040516104dd919061538b565b60405180910390f35b3480156104f257600080fd5b5061050d60048036038101906105089190614047565b6116ef565b60405161051a919061575f565b60405180910390f35b61052b611707565b005b34801561053957600080fd5b506105426117b4565b60405161054f9190615286565b60405180910390f35b34801561056457600080fd5b5061056d6117de565b005b34801561057b57600080fd5b5061059660048036038101906105919190614266565b6119b2565b005b3480156105a457600080fd5b506105ad611a4e565b6040516105ba9190615458565b60405180910390f35b3480156105cf57600080fd5b506105ea60048036038101906105e591906142f4565b611ae0565b6040516105ff9998979695949392919061577a565b60405180910390f35b34801561061457600080fd5b5061062f600480360381019061062a9190614176565b611c3e565b005b34801561063d57600080fd5b50610646611dbf565b60405161065795949392919061547a565b60405180910390f35b34801561066c57600080fd5b50610687600480360381019061068291906140fb565b611ef3565b005b34801561069557600080fd5b5061069e611f55565b6040516106ab91906153ad565b60405180910390f35b3480156106c057600080fd5b506106c961211f565b6040516106d6919061538b565b60405180910390f35b3480156106eb57600080fd5b50610706600480360381019061070191906142f4565b6121ad565b6040516107139190615458565b60405180910390f35b34801561072857600080fd5b506107316123fc565b60405161073e919061573d565b60405180910390f35b34801561075357600080fd5b5061076e600480360381019061076991906142f4565b6125f3565b60405161077b9190615286565b60405180910390f35b34801561079057600080fd5b50610799612632565b005b3480156107a757600080fd5b506107c260048036038101906107bd9190614070565b6128d4565b6040516107cf91906153cf565b60405180910390f35b3480156107e457600080fd5b506107ff60048036038101906107fa9190614047565b612968565b60405161080c919061573d565b60405180910390f35b34801561082157600080fd5b5061083c60048036038101906108379190614047565b612b45565b005b60007f80ac58cd000000000000000000000000000000000000000000000000000000007bffffffffffffffffffffffffffffffffffffffffffffffffffffffff1916827bffffffffffffffffffffffffffffffffffffffffffffffffffffffff1916148061090957507f5b5e139f000000000000000000000000000000000000000000000000000000007bffffffffffffffffffffffffffffffffffffffffffffffffffffffff1916827bffffffffffffffffffffffffffffffffffffffffffffffffffffffff1916145b80610919575061091882612c53565b5b9050919050565b610928613e19565b600f6040518060a001604052908160008201805461094590615bb7565b80601f016020809104026020016040519081016040528092919081815260200182805461097190615bb7565b80156109be5780601f10610993576101008083540402835291602001916109be565b820191906000526020600020905b8154815290600101906020018083116109a157829003601f168201915b505050505081526020016001820180546109d790615bb7565b80601f0160208091040260200160405190810160405280929190818152602001828054610a0390615bb7565b8015610a505780601f10610a2557610100808354040283529160200191610a50565b820191906000526020600020905b815481529060010190602001808311610a3357829003601f168201915b505050505081526020016002820154815260200160038201548152602001600482015481525050905090565b606060008054610a8b90615bb7565b80601f0160208091040260200160405190810160405280929190818152602001828054610ab790615bb7565b8015610b045780601f10610ad957610100808354040283529160200191610b04565b820191906000526020600020905b815481529060010190602001808311610ae757829003601f168201915b5050505050905090565b610b16612cbd565b73ffffffffffffffffffffffffffffffffffffffff16610b346117b4565b73ffffffffffffffffffffffffffffffffffffffff1614610b8a576040517f08c379a0000000000000000000000000000000000000000000000000000000008152600401610b819061567b565b60405180910390fd5b80600860006101000a81548173ffffffffffffffffffffffffffffffffffffffff021916908373ffffffffffffffffffffffffffffffffffffffff16021790555050565b6000610bd982612cc5565b610c18576040517f08c379a0000000000000000000000000000000000000000000000000000000008152600401610c0f9061565b565b60405180910390fd5b6004600083815260200190815260200160002060009054906101000a900473ffffffffffffffffffffffffffffffffffffffff169050919050565b6000610c5e8261146f565b90508073ffffffffffffffffffffffffffffffffffffffff168373ffffffffffffffffffffffffffffffffffffffff161415610ccf576040517f08c379a0000000000000000000000000000000000000000000000000000000008152600401610cc6906156db565b60405180910390fd5b8073ffffffffffffffffffffffffffffffffffffffff16610cee612cbd565b73ffffffffffffffffffffffffffffffffffffffff161480610d1d5750610d1c81610d17612cbd565b6128d4565b5b610d5c576040517f08c379a0000000000000000000000000000000000000000000000000000000008152600401610d53906155bb565b60405180910390fd5b610d668383612d31565b505050565b600c8181548110610d7b57600080fd5b906000526020600020016000915054906101000a900473ffffffffffffffffffffffffffffffffffffffff1681565b610dbb610db5612cbd565b82612dea565b610dfa576040517f08c379a0000000000000000000000000000000000000000000000000000000008152600401610df1906156fb565b60405180910390fd5b610e05838383612ec8565b505050565b60175481565b610e2b83838360405180602001604052806000815250611ef3565b505050565b67016345785d8a0000341015610e4557600080fd5b610e4e81613124565b50565b6000610e5d60096132f8565b9050610e698482613306565b6000606483610e789190615c46565b905060006064808386610e8b9190615ac3565b610e959190615a38565b610e9f9190615c46565b90506000606483600a8881548110610ee0577f4e487b7100000000000000000000000000000000000000000000000000000000600052603260045260246000fd5b906000526020600020906009020160040154610efc9190615a69565b610f069190615a38565b600a8781548110610f40577f4e487b7100000000000000000000000000000000000000000000000000000000600052603260045260246000fd5b906000526020600020906009020160030154610f5c91906159e2565b90506000606483600a8981548110610f9d577f4e487b7100000000000000000000000000000000000000000000000000000000600052603260045260246000fd5b906000526020600020906009020160070154610fb99190615a69565b610fc39190615a38565b600a8881548110610ffd577f4e487b7100000000000000000000000000000000000000000000000000000000600052603260045260246000fd5b90600052602060002090600902016006015461101991906159e2565b9050604051806101200160405280888152602001600a8981548110611067577f4e487b7100000000000000000000000000000000000000000000000000000000600052603260045260246000fd5b9060005260206000209060090201600101805461108390615bb7565b80601f01602080910402602001604051908101604052809291908181526020018280546110af90615bb7565b80156110fc5780601f106110d1576101008083540402835291602001916110fc565b820191906000526020600020905b8154815290600101906020018083116110df57829003601f168201915b50505050508152602001600a8981548110611140577f4e487b7100000000000000000000000000000000000000000000000000000000600052603260045260246000fd5b9060005260206000209060090201600201805461115c90615bb7565b80601f016020809104026020016040519081016040528092919081815260200182805461118890615bb7565b80156111d55780601f106111aa576101008083540402835291602001916111d5565b820191906000526020600020905b8154815290600101906020018083116111b857829003601f168201915b50505050508152602001838152602001600a898154811061121f577f4e487b7100000000000000000000000000000000000000000000000000000000600052603260045260246000fd5b9060005260206000209060090201600401548152602001838152602001828152602001600a898154811061127c577f4e487b7100000000000000000000000000000000000000000000000000000000600052603260045260246000fd5b9060005260206000209060090201600701548152602001600a89815481106112cd577f4e487b7100000000000000000000000000000000000000000000000000000000600052603260045260246000fd5b906000526020600020906009020160080154815250600b600087815260200190815260200160002060008201518160000155602082015181600101908051906020019061131b929190613e48565b506040820151816002019080519060200190611338929190613e48565b50606082015181600301556080820151816004015560a0820151816005015560c0820151816006015560e082015181600701556101008201518160080155905050600c889080600181540180825580915050600190039060005260206000200160009091909190916101000a81548173ffffffffffffffffffffffffffffffffffffffff021916908373ffffffffffffffffffffffffffffffffffffffff16021790555084601460008a73ffffffffffffffffffffffffffffffffffffffff1673ffffffffffffffffffffffffffffffffffffffff1681526020019081526020016000208190555061142a6009612c3d565b7f4bc303fd457a97b4691b9af582ce71868a3d258638c8d4f8c60988a0f0bfb8cd88868960405161145d93929190615354565b60405180910390a15050505050505050565b6000806002600084815260200190815260200160002060009054906101000a900473ffffffffffffffffffffffffffffffffffffffff169050600073ffffffffffffffffffffffffffffffffffffffff168173ffffffffffffffffffffffffffffffffffffffff161415611518576040517f08c379a000000000000000000000000000000000000000000000000000000000815260040161150f906155fb565b60405180910390fd5b80915050919050565b60008073ffffffffffffffffffffffffffffffffffffffff168273ffffffffffffffffffffffffffffffffffffffff161415611592576040517f08c379a0000000000000000000000000000000000000000000000000000000008152600401611589906155db565b60405180910390fd5b600360008373ffffffffffffffffffffffffffffffffffffffff1673ffffffffffffffffffffffffffffffffffffffff168152602001908152602001600020549050919050565b6115e1612cbd565b73ffffffffffffffffffffffffffffffffffffffff166115ff6117b4565b73ffffffffffffffffffffffffffffffffffffffff1614611655576040517f08c379a000000000000000000000000000000000000000000000000000000000815260040161164c9061567b565b60405180910390fd5b61165f6000613324565b565b6060600d8054806020026020016040519081016040528092919081815260200182805480156116e557602002820191906000526020600020905b8160009054906101000a900473ffffffffffffffffffffffffffffffffffffffff1673ffffffffffffffffffffffffffffffffffffffff168152602001906001019080831161169b575b5050505050905090565b60146020528060005260406000206000915090505481565b6701bc16d674ec800034101561171c57600080fd5b6000601460003373ffffffffffffffffffffffffffffffffffffffff1673ffffffffffffffffffffffffffffffffffffffff1681526020019081526020016000205490506000600b60008381526020019081526020016000209050806005015481600301819055507f6ce9e38229e9dc4c2661c2cbae54e8fb3bd68fe62eedeaaa4e83f8242191ec6260405160405180910390a15050565b6000600760009054906101000a900473ffffffffffffffffffffffffffffffffffffffff16905090565b6117e6612cbd565b73ffffffffffffffffffffffffffffffffffffffff166118046117b4565b73ffffffffffffffffffffffffffffffffffffffff161461185a576040517f08c379a00000000000000000000000000000000000000000000000000000000081526004016118519061567b565b60405180910390fd5b7f000000000000000000000000000000000000000000000000000000000000000073ffffffffffffffffffffffffffffffffffffffff1663a9059cbb337f000000000000000000000000000000000000000000000000000000000000000073ffffffffffffffffffffffffffffffffffffffff166370a08231306040518263ffffffff1660e01b81526004016118f09190615286565b60206040518083038186803b15801561190857600080fd5b505afa15801561191c573d6000803e3d6000fd5b505050506040513d601f19601f82011682018060405250810190611940919061431d565b6040518363ffffffff1660e01b815260040161195d9291906152ed565b602060405180830381600087803b15801561197757600080fd5b505af115801561198b573d6000803e3d6000fd5b505050506040513d601f19601f820116820180604052508101906119af919061423d565b50565b7f000000000000000000000000000000000000000000000000000000000000000073ffffffffffffffffffffffffffffffffffffffff163373ffffffffffffffffffffffffffffffffffffffff1614611a40576040517f08c379a0000000000000000000000000000000000000000000000000000000008152600401611a37906156bb565b60405180910390fd5b611a4a82826133ea565b5050565b606060018054611a5d90615bb7565b80601f0160208091040260200160405190810160405280929190818152602001828054611a8990615bb7565b8015611ad65780601f10611aab57610100808354040283529160200191611ad6565b820191906000526020600020905b815481529060010190602001808311611ab957829003601f168201915b5050505050905090565b600b602052806000526040600020600091509050806000015490806001018054611b0990615bb7565b80601f0160208091040260200160405190810160405280929190818152602001828054611b3590615bb7565b8015611b825780601f10611b5757610100808354040283529160200191611b82565b820191906000526020600020905b815481529060010190602001808311611b6557829003601f168201915b505050505090806002018054611b9790615bb7565b80601f0160208091040260200160405190810160405280929190818152602001828054611bc390615bb7565b8015611c105780601f10611be557610100808354040283529160200191611c10565b820191906000526020600020905b815481529060010190602001808311611bf357829003601f168201915b5050505050908060030154908060040154908060050154908060060154908060070154908060080154905089565b611c46612cbd565b73ffffffffffffffffffffffffffffffffffffffff168273ffffffffffffffffffffffffffffffffffffffff161415611cb4576040517f08c379a0000000000000000000000000000000000000000000000000000000008152600401611cab9061555b565b60405180910390fd5b8060056000611cc1612cbd565b73ffffffffffffffffffffffffffffffffffffffff1673ffffffffffffffffffffffffffffffffffffffff16815260200190815260200160002060008473ffffffffffffffffffffffffffffffffffffffff1673ffffffffffffffffffffffffffffffffffffffff16815260200190815260200160002060006101000a81548160ff0219169083151502179055508173ffffffffffffffffffffffffffffffffffffffff16611d6e612cbd565b73ffffffffffffffffffffffffffffffffffffffff167f17307eab39ab6107e8899845ad3d59bd9653f200f220920489ca2b5937696c3183604051611db391906153cf565b60405180910390a35050565b600f806000018054611dd090615bb7565b80601f0160208091040260200160405190810160405280929190818152602001828054611dfc90615bb7565b8015611e495780601f10611e1e57610100808354040283529160200191611e49565b820191906000526020600020905b815481529060010190602001808311611e2c57829003601f168201915b505050505090806001018054611e5e90615bb7565b80601f0160208091040260200160405190810160405280929190818152602001828054611e8a90615bb7565b8015611ed75780601f10611eac57610100808354040283529160200191611ed7565b820191906000526020600020905b815481529060010190602001808311611eba57829003601f168201915b5050505050908060020154908060030154908060040154905085565b611f04611efe612cbd565b83612dea565b611f43576040517f08c379a0000000000000000000000000000000000000000000000000000000008152600401611f3a906156fb565b60405180910390fd5b611f4f848484846134a9565b50505050565b6060600a805480602002602001604051908101604052809291908181526020016000905b8282101561211657838290600052602060002090600902016040518061012001604052908160008201548152602001600182018054611fb790615bb7565b80601f0160208091040260200160405190810160405280929190818152602001828054611fe390615bb7565b80156120305780601f1061200557610100808354040283529160200191612030565b820191906000526020600020905b81548152906001019060200180831161201357829003601f168201915b5050505050815260200160028201805461204990615bb7565b80601f016020809104026020016040519081016040528092919081815260200182805461207590615bb7565b80156120c25780601f10612097576101008083540402835291602001916120c2565b820191906000526020600020905b8154815290600101906020018083116120a557829003601f168201915b50505050508152602001600382015481526020016004820154815260200160058201548152602001600682015481526020016007820154815260200160088201548152505081526020019060010190611f79565b50505050905090565b6060600c8054806020026020016040519081016040528092919081815260200182805480156121a357602002820191906000526020600020905b8160009054906101000a900473ffffffffffffffffffffffffffffffffffffffff1673ffffffffffffffffffffffffffffffffffffffff1681526020019060010190808311612159575b5050505050905090565b60606000600b600084815260200190815260200160002060405180610120016040529081600082015481526020016001820180546121ea90615bb7565b80601f016020809104026020016040519081016040528092919081815260200182805461221690615bb7565b80156122635780601f1061223857610100808354040283529160200191612263565b820191906000526020600020905b81548152906001019060200180831161224657829003601f168201915b5050505050815260200160028201805461227c90615bb7565b80601f01602080910402602001604051908101604052809291908181526020018280546122a890615bb7565b80156122f55780601f106122ca576101008083540402835291602001916122f5565b820191906000526020600020905b8154815290600101906020018083116122d857829003601f168201915b5050505050815260200160038201548152602001600482015481526020016005820154815260200160068201548152602001600782015481526020016008820154815250509050600061234b8260600151613505565b9050600061235c8360a00151613505565b9050600061236d8460c00151613505565b9050600061237f856101000151613505565b905060006123c786602001516123948a613505565b8860400151888888886040516020016123b397969594939291906151a7565b6040516020818303038152906040526136b2565b90506000816040516020016123dc9190615264565b604051602081830303815290604052905080975050505050505050919050565b612404613ece565b6000601460003373ffffffffffffffffffffffffffffffffffffffff1673ffffffffffffffffffffffffffffffffffffffff16815260200190815260200160002054905060008111156125e257600b6000828152602001908152602001600020604051806101200160405290816000820154815260200160018201805461248a90615bb7565b80601f01602080910402602001604051908101604052809291908181526020018280546124b690615bb7565b80156125035780601f106124d857610100808354040283529160200191612503565b820191906000526020600020905b8154815290600101906020018083116124e657829003601f168201915b5050505050815260200160028201805461251c90615bb7565b80601f016020809104026020016040519081016040528092919081815260200182805461254890615bb7565b80156125955780601f1061256a57610100808354040283529160200191612595565b820191906000526020600020905b81548152906001019060200180831161257857829003601f168201915b5050505050815260200160038201548152602001600482015481526020016005820154815260200160068201548152602001600782015481526020016008820154815250509150506125f0565b6125ea613ece565b80925050505b90565b600d818154811061260357600080fd5b906000526020600020016000915054906101000a900473ffffffffffffffffffffffffffffffffffffffff1681565b6000601460003373ffffffffffffffffffffffffffffffffffffffff1673ffffffffffffffffffffffffffffffffffffffff1681526020019081526020016000205490506000600b6000838152602001908152602001600020905060008160030154116126d4576040517f08c379a00000000000000000000000000000000000000000000000000000000081526004016126cb9061561b565b60405180910390fd5b600080600860009054906101000a900473ffffffffffffffffffffffffffffffffffffffff1673ffffffffffffffffffffffffffffffffffffffff1663875aa14a846003015485600601548660080154600f60020154600f60040154600f600301546040518763ffffffff1660e01b81526004016127579695949392919061585a565b60a060405180830381600087803b15801561277157600080fd5b505af1158015612785573d6000803e3d6000fd5b505050506040513d601f19601f820116820180604052508101906127a99190614346565b876003016000600f6002016000600f6003016000869b50879c508891905055879190505586919050555050505050811561288857600d339080600181540180825580915050600190039060005260206000200160009091909190916101000a81548173ffffffffffffffffffffffffffffffffffffffff021916908373ffffffffffffffffffffffffffffffffffffffff1602179055503373ffffffffffffffffffffffffffffffffffffffff166108fc479081150290604051600060405180830381858888f19350505050158015612886573d6000803e3d6000fd5b505b7f1824a9c93adf0f7c39a6858fe842fa8820959f97a64577da07532cd6988f36438360030154600f6002015484846040516128c69493929190615815565b60405180910390a150505050565b6000600560008473ffffffffffffffffffffffffffffffffffffffff1673ffffffffffffffffffffffffffffffffffffffff16815260200190815260200160002060008373ffffffffffffffffffffffffffffffffffffffff1673ffffffffffffffffffffffffffffffffffffffff16815260200190815260200160002060009054906101000a900460ff16905092915050565b612970613ece565b6000601460008473ffffffffffffffffffffffffffffffffffffffff1673ffffffffffffffffffffffffffffffffffffffff168152602001908152602001600020549050600b600082815260200190815260200160002060405180610120016040529081600082015481526020016001820180546129ed90615bb7565b80601f0160208091040260200160405190810160405280929190818152602001828054612a1990615bb7565b8015612a665780601f10612a3b57610100808354040283529160200191612a66565b820191906000526020600020905b815481529060010190602001808311612a4957829003601f168201915b50505050508152602001600282018054612a7f90615bb7565b80601f0160208091040260200160405190810160405280929190818152602001828054612aab90615bb7565b8015612af85780601f10612acd57610100808354040283529160200191612af8565b820191906000526020600020905b815481529060010190602001808311612adb57829003601f168201915b505050505081526020016003820154815260200160048201548152602001600582015481526020016006820154815260200160078201548152602001600882015481525050915050919050565b612b4d612cbd565b73ffffffffffffffffffffffffffffffffffffffff16612b6b6117b4565b73ffffffffffffffffffffffffffffffffffffffff1614612bc1576040517f08c379a0000000000000000000000000000000000000000000000000000000008152600401612bb89061567b565b60405180910390fd5b600073ffffffffffffffffffffffffffffffffffffffff168173ffffffffffffffffffffffffffffffffffffffff161415612c31576040517f08c379a0000000000000000000000000000000000000000000000000000000008152600401612c28906154fb565b60405180910390fd5b612c3a81613324565b50565b6001816000016000828254019250508190555050565b60007f01ffc9a7000000000000000000000000000000000000000000000000000000007bffffffffffffffffffffffffffffffffffffffffffffffffffffffff1916827bffffffffffffffffffffffffffffffffffffffffffffffffffffffff1916149050919050565b600033905090565b60008073ffffffffffffffffffffffffffffffffffffffff166002600084815260200190815260200160002060009054906101000a900473ffffffffffffffffffffffffffffffffffffffff1673ffffffffffffffffffffffffffffffffffffffff1614159050919050565b816004600083815260200190815260200160002060006101000a81548173ffffffffffffffffffffffffffffffffffffffff021916908373ffffffffffffffffffffffffffffffffffffffff160217905550808273ffffffffffffffffffffffffffffffffffffffff16612da48361146f565b73ffffffffffffffffffffffffffffffffffffffff167f8c5be1e5ebec7d5bd14f71427d1e84f3dd0314c0f7b2291e5b200ac8c7c3b92560405160405180910390a45050565b6000612df582612cc5565b612e34576040517f08c379a0000000000000000000000000000000000000000000000000000000008152600401612e2b9061559b565b60405180910390fd5b6000612e3f8361146f565b90508073ffffffffffffffffffffffffffffffffffffffff168473ffffffffffffffffffffffffffffffffffffffff161480612eae57508373ffffffffffffffffffffffffffffffffffffffff16612e9684610bce565b73ffffffffffffffffffffffffffffffffffffffff16145b80612ebf5750612ebe81856128d4565b5b91505092915050565b8273ffffffffffffffffffffffffffffffffffffffff16612ee88261146f565b73ffffffffffffffffffffffffffffffffffffffff1614612f3e576040517f08c379a0000000000000000000000000000000000000000000000000000000008152600401612f359061569b565b60405180910390fd5b600073ffffffffffffffffffffffffffffffffffffffff168273ffffffffffffffffffffffffffffffffffffffff161415612fae576040517f08c379a0000000000000000000000000000000000000000000000000000000008152600401612fa59061553b565b60405180910390fd5b612fb9838383613870565b612fc4600082612d31565b6001600360008573ffffffffffffffffffffffffffffffffffffffff1673ffffffffffffffffffffffffffffffffffffffff16815260200190815260200160002060008282546130149190615ac3565b925050819055506001600360008473ffffffffffffffffffffffffffffffffffffffff1673ffffffffffffffffffffffffffffffffffffffff168152602001908152602001600020600082825461306b91906159e2565b92505081905550816002600083815260200190815260200160002060006101000a81548173ffffffffffffffffffffffffffffffffffffffff021916908373ffffffffffffffffffffffffffffffffffffffff160217905550808273ffffffffffffffffffffffffffffffffffffffff168473ffffffffffffffffffffffffffffffffffffffff167fddf252ad1be2c89b69c2b068fc378daa952ba7f163c4a11628f55a4df523b3ef60405160405180910390a4505050565b6016547f000000000000000000000000000000000000000000000000000000000000000073ffffffffffffffffffffffffffffffffffffffff166370a08231306040518263ffffffff1660e01b81526004016131809190615286565b60206040518083038186803b15801561319857600080fd5b505afa1580156131ac573d6000803e3d6000fd5b505050506040513d601f19601f820116820180604052508101906131d0919061431d565b1015613211576040517f08c379a00000000000000000000000000000000000000000000000000000000081526004016132089061557b565b60405180910390fd5b600060405180604001604052803373ffffffffffffffffffffffffffffffffffffffff1681526020018381525090506000613250601554601654613875565b905081600e600083815260200190815260200160002060008201518160000160006101000a81548173ffffffffffffffffffffffffffffffffffffffff021916908373ffffffffffffffffffffffffffffffffffffffff160217905550602082015181600101559050507f7a2348cf64e865f131932f9cd2cff519873b1bf4683107b8f71b371d3030261233846040516132eb9291906152ed565b60405180910390a1505050565b600081600001549050919050565b6133208282604051806020016040528060008152506139d7565b5050565b6000600760009054906101000a900473ffffffffffffffffffffffffffffffffffffffff16905081600760006101000a81548173ffffffffffffffffffffffffffffffffffffffff021916908373ffffffffffffffffffffffffffffffffffffffff1602179055508173ffffffffffffffffffffffffffffffffffffffff168173ffffffffffffffffffffffffffffffffffffffff167f8be0079c531659141344cd1fd0a4f28419497f9722a3daafe3b4186f6b6457e060405160405180910390a35050565b3073ffffffffffffffffffffffffffffffffffffffff166361453a13600e600085815260200190815260200160002060000160009054906101000a900473ffffffffffffffffffffffffffffffffffffffff16600e600086815260200190815260200160002060010154846040518463ffffffff1660e01b815260040161347393929190615354565b600060405180830381600087803b15801561348d57600080fd5b505af11580156134a1573d6000803e3d6000fd5b505050505050565b6134b4848484612ec8565b6134c084848484613a32565b6134ff576040517f08c379a00000000000000000000000000000000000000000000000000000000081526004016134f6906154db565b60405180910390fd5b50505050565b6060600082141561354d576040518060400160405280600181526020017f300000000000000000000000000000000000000000000000000000000000000081525090506136ad565b600082905060005b6000821461357f57808061356890615be9565b915050600a826135789190615a38565b9150613555565b60008167ffffffffffffffff8111156135c1577f4e487b7100000000000000000000000000000000000000000000000000000000600052604160045260246000fd5b6040519080825280601f01601f1916602001820160405280156135f35781602001600182028036833780820191505090505b5090505b600085146136a65760018261360c9190615ac3565b9150600a8561361b9190615c46565b603061362791906159e2565b60f81b818381518110613663577f4e487b7100000000000000000000000000000000000000000000000000000000600052603260045260246000fd5b60200101907effffffffffffffffffffffffffffffffffffffffffffffffffffffffffffff1916908160001a905350600a8561369f9190615a38565b94506135f7565b8093505050505b919050565b606060008251905060008114156136db576040518060200160405280600081525091505061386b565b600060036002836136ec91906159e2565b6136f69190615a38565b60046137029190615a69565b9050600060208261371391906159e2565b67ffffffffffffffff811115613752577f4e487b7100000000000000000000000000000000000000000000000000000000600052604160045260246000fd5b6040519080825280601f01601f1916602001820160405280156137845781602001600182028036833780820191505090505b5090506000604051806060016040528060408152602001615db8604091399050600181016020830160005b868110156138285760038101905062ffffff818a015116603f8160121c168401518060081b905060ff603f83600c1c1686015116810190508060081b905060ff603f8360061c1686015116810190508060081b905060ff603f831686015116810190508060e01b905080845260048401935050506137af565b50600386066001811461384257600281146138525761385d565b613d3d60f01b600283035261385d565b603d60f81b60018303525b508484525050819450505050505b919050565b505050565b60007f000000000000000000000000000000000000000000000000000000000000000073ffffffffffffffffffffffffffffffffffffffff16634000aea07f0000000000000000000000000000000000000000000000000000000000000000848660006040516020016138e99291906153ea565b6040516020818303038152906040526040518463ffffffff1660e01b815260040161391693929190615316565b602060405180830381600087803b15801561393057600080fd5b505af1158015613944573d6000803e3d6000fd5b505050506040513d601f19601f82011682018060405250810190613968919061423d565b50600061398b846000306006600089815260200190815260200160002054613bc9565b9050600160066000868152602001908152602001600020546139ad91906159e2565b60066000868152602001908152602001600020819055506139ce8482613c05565b91505092915050565b6139e18383613c38565b6139ee6000848484613a32565b613a2d576040517f08c379a0000000000000000000000000000000000000000000000000000000008152600401613a24906154db565b60405180910390fd5b505050565b6000613a538473ffffffffffffffffffffffffffffffffffffffff16613e06565b15613bbc578373ffffffffffffffffffffffffffffffffffffffff1663150b7a02613a7c612cbd565b8786866040518563ffffffff1660e01b8152600401613a9e94939291906152a1565b602060405180830381600087803b158015613ab857600080fd5b505af1925050508015613ae957506040513d601f19601f82011682018060405250810190613ae691906142cb565b60015b613b6c573d8060008114613b19576040519150601f19603f3d011682016040523d82523d6000602084013e613b1e565b606091505b50600081511415613b64576040517f08c379a0000000000000000000000000000000000000000000000000000000008152600401613b5b906154db565b60405180910390fd5b805181602001fd5b63150b7a0260e01b7bffffffffffffffffffffffffffffffffffffffffffffffffffffffff1916817bffffffffffffffffffffffffffffffffffffffffffffffffffffffff191614915050613bc1565b600190505b949350505050565b600084848484604051602001613be29493929190615413565b6040516020818303038152906040528051906020012060001c9050949350505050565b60008282604051602001613c1a92919061517b565b60405160208183030381529060405280519060200120905092915050565b600073ffffffffffffffffffffffffffffffffffffffff168273ffffffffffffffffffffffffffffffffffffffff161415613ca8576040517f08c379a0000000000000000000000000000000000000000000000000000000008152600401613c9f9061563b565b60405180910390fd5b613cb181612cc5565b15613cf1576040517f08c379a0000000000000000000000000000000000000000000000000000000008152600401613ce89061551b565b60405180910390fd5b613cfd60008383613870565b6001600360008473ffffffffffffffffffffffffffffffffffffffff1673ffffffffffffffffffffffffffffffffffffffff1681526020019081526020016000206000828254613d4d91906159e2565b92505081905550816002600083815260200190815260200160002060006101000a81548173ffffffffffffffffffffffffffffffffffffffff021916908373ffffffffffffffffffffffffffffffffffffffff160217905550808273ffffffffffffffffffffffffffffffffffffffff16600073ffffffffffffffffffffffffffffffffffffffff167fddf252ad1be2c89b69c2b068fc378daa952ba7f163c4a11628f55a4df523b3ef60405160405180910390a45050565b600080823b905060008111915050919050565b6040518060a0016040528060608152602001606081526020016000815260200160008152602001600081525090565b828054613e5490615bb7565b90600052602060002090601f016020900481019282613e765760008555613ebd565b82601f10613e8f57805160ff1916838001178555613ebd565b82800160010185558215613ebd579182015b82811115613ebc578251825591602001919060010190613ea1565b5b509050613eca9190613f1a565b5090565b6040518061012001604052806000815260200160608152602001606081526020016000815260200160008152602001600081526020016000815260200160008152602001600081525090565b5b80821115613f33576000816000905550600101613f1b565b5090565b6000613f4a613f45846158ec565b6158bb565b905082815260208101848484011115613f6257600080fd5b613f6d848285615b75565b509392505050565b600081359050613f8481615d44565b92915050565b600081359050613f9981615d5b565b92915050565b600081519050613fae81615d5b565b92915050565b600081359050613fc381615d72565b92915050565b600081359050613fd881615d89565b92915050565b600081519050613fed81615d89565b92915050565b600082601f83011261400457600080fd5b8135614014848260208601613f37565b91505092915050565b60008135905061402c81615da0565b92915050565b60008151905061404181615da0565b92915050565b60006020828403121561405957600080fd5b600061406784828501613f75565b91505092915050565b6000806040838503121561408357600080fd5b600061409185828601613f75565b92505060206140a285828601613f75565b9150509250929050565b6000806000606084860312156140c157600080fd5b60006140cf86828701613f75565b93505060206140e086828701613f75565b92505060406140f18682870161401d565b9150509250925092565b6000806000806080858703121561411157600080fd5b600061411f87828801613f75565b945050602061413087828801613f75565b93505060406141418782880161401d565b925050606085013567ffffffffffffffff81111561415e57600080fd5b61416a87828801613ff3565b91505092959194509250565b6000806040838503121561418957600080fd5b600061419785828601613f75565b92505060206141a885828601613f8a565b9150509250929050565b600080604083850312156141c557600080fd5b60006141d385828601613f75565b92505060206141e48582860161401d565b9150509250929050565b60008060006060848603121561420357600080fd5b600061421186828701613f75565b93505060206142228682870161401d565b92505060406142338682870161401d565b9150509250925092565b60006020828403121561424f57600080fd5b600061425d84828501613f9f565b91505092915050565b6000806040838503121561427957600080fd5b600061428785828601613fb4565b92505060206142988582860161401d565b9150509250929050565b6000602082840312156142b457600080fd5b60006142c284828501613fc9565b91505092915050565b6000602082840312156142dd57600080fd5b60006142eb84828501613fde565b91505092915050565b60006020828403121561430657600080fd5b60006143148482850161401d565b91505092915050565b60006020828403121561432f57600080fd5b600061433d84828501614032565b91505092915050565b600080600080600060a0868803121561435e57600080fd5b600061436c88828901614032565b955050602061437d88828901614032565b945050604061438e88828901614032565b935050606061439f88828901613f9f565b92505060806143b088828901613f9f565b9150509295509295909350565b60006143c983836143e9565b60208301905092915050565b60006143e18383614fae565b905092915050565b6143f281615af7565b82525050565b61440181615af7565b82525050565b60006144128261593c565b61441c8185615982565b93506144278361591c565b8060005b8381101561445857815161443f88826143bd565b975061444a83615968565b92505060018101905061442b565b5085935050505092915050565b600061447082615947565b61447a8185615993565b93508360208202850161448c8561592c565b8060005b858110156144c857848403895281516144a985826143d5565b94506144b483615975565b925060208a01995050600181019050614490565b50829750879550505050505092915050565b6144e381615b09565b82525050565b6144f281615b15565b82525050565b61450961450482615b15565b615c32565b82525050565b600061451a82615952565b61452481856159a4565b9350614534818560208601615b84565b61453d81615d33565b840191505092915050565b60006145538261595d565b61455d81856159b5565b935061456d818560208601615b84565b61457681615d33565b840191505092915050565b600061458c8261595d565b61459681856159c6565b93506145a6818560208601615b84565b6145af81615d33565b840191505092915050565b60006145c58261595d565b6145cf81856159d7565b93506145df818560208601615b84565b80840191505092915050565b60006145f8600b836159d7565b91507f202d2d204e465420233a200000000000000000000000000000000000000000006000830152600b82019050919050565b60006146386032836159c6565b91507f4552433732313a207472616e7366657220746f206e6f6e20455243373231526560008301527f63656976657220696d706c656d656e74657200000000000000000000000000006020830152604082019050919050565b600061469e6026836159c6565b91507f4f776e61626c653a206e6577206f776e657220697320746865207a65726f206160008301527f64647265737300000000000000000000000000000000000000000000000000006020830152604082019050919050565b6000614704601c836159c6565b91507f4552433732313a20746f6b656e20616c7265616479206d696e746564000000006000830152602082019050919050565b60006147446032836159d7565b91507f222c20226465736372697074696f6e223a2022416e2065706963204e4654222c60008301527f2022696d616765223a2022697066733a2f2f00000000000000000000000000006020830152603282019050919050565b60006147aa600e836159d7565b91507f2c20226d61785f76616c7565223a0000000000000000000000000000000000006000830152600e82019050919050565b60006147ea6024836159c6565b91507f4552433732313a207472616e7366657220746f20746865207a65726f2061646460008301527f72657373000000000000000000000000000000000000000000000000000000006020830152604082019050919050565b60006148506019836159c6565b91507f4552433732313a20617070726f766520746f2063616c6c6572000000000000006000830152602082019050919050565b6000614890602b836159c6565b91507f4e6f7420656e6f756768204c494e4b202d2066696c6c20636f6e74726163742060008301527f77697468206661756365740000000000000000000000000000000000000000006020830152604082019050919050565b60006148f6602c836159c6565b91507f4552433732313a206f70657261746f7220717565727920666f72206e6f6e657860008301527f697374656e7420746f6b656e00000000000000000000000000000000000000006020830152604082019050919050565b600061495c6038836159c6565b91507f4552433732313a20617070726f76652063616c6c6572206973206e6f74206f7760008301527f6e6572206e6f7220617070726f76656420666f7220616c6c00000000000000006020830152604082019050919050565b60006149c2602a836159c6565b91507f4552433732313a2062616c616e636520717565727920666f7220746865207a6560008301527f726f2061646472657373000000000000000000000000000000000000000000006020830152604082019050919050565b6000614a286029836159c6565b91507f4552433732313a206f776e657220717565727920666f72206e6f6e657869737460008301527f656e7420746f6b656e00000000000000000000000000000000000000000000006020830152604082019050919050565b6000614a8e602d836159c6565b91507f4572726f723a20636861726163746572206d757374206861766520485020746f60008301527f2061747461636b20626f73732e000000000000000000000000000000000000006020830152604082019050919050565b6000614af46004836159d7565b91507f7d205d7d000000000000000000000000000000000000000000000000000000006000830152600482019050919050565b6000614b346020836159c6565b91507f4552433732313a206d696e7420746f20746865207a65726f20616464726573736000830152602082019050919050565b6000614b74602c836159c6565b91507f4552433732313a20617070726f76656420717565727920666f72206e6f6e657860008301527f697374656e7420746f6b656e00000000000000000000000000000000000000006020830152604082019050919050565b6000614bda6020836159c6565b91507f4f776e61626c653a2063616c6c6572206973206e6f7420746865206f776e65726000830152602082019050919050565b6000614c1a6029836159c6565b91507f4552433732313a207472616e73666572206f6620746f6b656e2074686174206960008301527f73206e6f74206f776e00000000000000000000000000000000000000000000006020830152604082019050919050565b6000614c80602f836159d7565b91507f7d2c207b202274726169745f74797065223a2022437269746963616c2043686160008301527f6e6365222c202276616c7565223a2000000000000000000000000000000000006020830152602f82019050919050565b6000614ce6600a836159d7565b91507f7b226e616d65223a2022000000000000000000000000000000000000000000006000830152600a82019050919050565b6000614d26601f836159c6565b91507f4f6e6c7920565246436f6f7264696e61746f722063616e2066756c66696c6c006000830152602082019050919050565b6000614d666021836159c6565b91507f4552433732313a20617070726f76616c20746f2063757272656e74206f776e6560008301527f72000000000000000000000000000000000000000000000000000000000000006020830152604082019050919050565b6000614dcc601d836159d7565b91507f646174613a6170706c69636174696f6e2f6a736f6e3b6261736536342c0000006000830152601d82019050919050565b6000614e0c6031836159c6565b91507f4552433732313a207472616e736665722063616c6c6572206973206e6f74206f60008301527f776e6572206e6f7220617070726f7665640000000000000000000000000000006020830152604082019050919050565b6000614e72603d836159d7565b91507f222c202261747472696275746573223a205b207b202274726169745f7479706560008301527f223a20224865616c746820506f696e7473222c202276616c7565223a200000006020830152603d82019050919050565b6000614ed8602d836159d7565b91507f7d2c207b202274726169745f74797065223a202241747461636b2044616d616760008301527f65222c202276616c7565223a20000000000000000000000000000000000000006020830152602d82019050919050565b600060a0830160008301518482036000860152614f4e8282614548565b91505060208301518482036020860152614f688282614548565b9150506040830151614f7d6040860182615146565b506060830151614f906060860182615146565b506080830151614fa36080860182615146565b508091505092915050565b600061012083016000830151614fc76000860182615146565b5060208301518482036020860152614fdf8282614548565b91505060408301518482036040860152614ff98282614548565b915050606083015161500e6060860182615146565b5060808301516150216080860182615146565b5060a083015161503460a0860182615146565b5060c083015161504760c0860182615146565b5060e083015161505a60e0860182615146565b5061010083015161506f610100860182615146565b508091505092915050565b6000610120830160008301516150936000860182615146565b50602083015184820360208601526150ab8282614548565b915050604083015184820360408601526150c58282614548565b91505060608301516150da6060860182615146565b5060808301516150ed6080860182615146565b5060a083015161510060a0860182615146565b5060c083015161511360c0860182615146565b5060e083015161512660e0860182615146565b5061010083015161513b610100860182615146565b508091505092915050565b61514f81615b6b565b82525050565b61515e81615b6b565b82525050565b61517561517082615b6b565b615c3c565b82525050565b600061518782856144f8565b6020820191506151978284615164565b6020820191508190509392505050565b60006151b282614cd9565b91506151be828a6145ba565b91506151c9826145eb565b91506151d582896145ba565b91506151e082614737565b91506151ec82886145ba565b91506151f782614e65565b915061520382876145ba565b915061520e8261479d565b915061521a82866145ba565b915061522582614ecb565b915061523182856145ba565b915061523c82614c73565b915061524882846145ba565b915061525382614ae7565b915081905098975050505050505050565b600061526f82614dbf565b915061527b82846145ba565b915081905092915050565b600060208201905061529b60008301846143f8565b92915050565b60006080820190506152b660008301876143f8565b6152c360208301866143f8565b6152d06040830185615155565b81810360608301526152e2818461450f565b905095945050505050565b600060408201905061530260008301856143f8565b61530f6020830184615155565b9392505050565b600060608201905061532b60008301866143f8565b6153386020830185615155565b818103604083015261534a818461450f565b9050949350505050565b600060608201905061536960008301866143f8565b6153766020830185615155565b6153836040830184615155565b949350505050565b600060208201905081810360008301526153a58184614407565b905092915050565b600060208201905081810360008301526153c78184614465565b905092915050565b60006020820190506153e460008301846144da565b92915050565b60006040820190506153ff60008301856144e9565b61540c6020830184615155565b9392505050565b600060808201905061542860008301876144e9565b6154356020830186615155565b61544260408301856143f8565b61544f6060830184615155565b95945050505050565b600060208201905081810360008301526154728184614581565b905092915050565b600060a08201905081810360008301526154948188614581565b905081810360208301526154a88187614581565b90506154b76040830186615155565b6154c46060830185615155565b6154d16080830184615155565b9695505050505050565b600060208201905081810360008301526154f48161462b565b9050919050565b6000602082019050818103600083015261551481614691565b9050919050565b60006020820190508181036000830152615534816146f7565b9050919050565b60006020820190508181036000830152615554816147dd565b9050919050565b6000602082019050818103600083015261557481614843565b9050919050565b6000602082019050818103600083015261559481614883565b9050919050565b600060208201905081810360008301526155b4816148e9565b9050919050565b600060208201905081810360008301526155d48161494f565b9050919050565b600060208201905081810360008301526155f4816149b5565b9050919050565b6000602082019050818103600083015261561481614a1b565b9050919050565b6000602082019050818103600083015261563481614a81565b9050919050565b6000602082019050818103600083015261565481614b27565b9050919050565b6000602082019050818103600083015261567481614b67565b9050919050565b6000602082019050818103600083015261569481614bcd565b9050919050565b600060208201905081810360008301526156b481614c0d565b9050919050565b600060208201905081810360008301526156d481614d19565b9050919050565b600060208201905081810360008301526156f481614d59565b9050919050565b6000602082019050818103600083015261571481614dff565b9050919050565b600060208201905081810360008301526157358184614f31565b905092915050565b60006020820190508181036000830152615757818461507a565b905092915050565b60006020820190506157746000830184615155565b92915050565b600061012082019050615790600083018c615155565b81810360208301526157a2818b614581565b905081810360408301526157b6818a614581565b90506157c56060830189615155565b6157d26080830188615155565b6157df60a0830187615155565b6157ec60c0830186615155565b6157f960e0830185615155565b615807610100830184615155565b9a9950505050505050505050565b600060808201905061582a6000830187615155565b6158376020830186615155565b61584460408301856144da565b61585160608301846144da565b95945050505050565b600060c08201905061586f6000830189615155565b61587c6020830188615155565b6158896040830187615155565b6158966060830186615155565b6158a36080830185615155565b6158b060a0830184615155565b979650505050505050565b6000604051905081810181811067ffffffffffffffff821117156158e2576158e1615d04565b5b8060405250919050565b600067ffffffffffffffff82111561590757615906615d04565b5b601f19601f8301169050602081019050919050565b6000819050602082019050919050565b6000819050602082019050919050565b600081519050919050565b600081519050919050565b600081519050919050565b600081519050919050565b6000602082019050919050565b6000602082019050919050565b600082825260208201905092915050565b600082825260208201905092915050565b600082825260208201905092915050565b600082825260208201905092915050565b600082825260208201905092915050565b600081905092915050565b60006159ed82615b6b565b91506159f883615b6b565b9250827fffffffffffffffffffffffffffffffffffffffffffffffffffffffffffffffff03821115615a2d57615a2c615c77565b5b828201905092915050565b6000615a4382615b6b565b9150615a4e83615b6b565b925082615a5e57615a5d615ca6565b5b828204905092915050565b6000615a7482615b6b565b9150615a7f83615b6b565b9250817fffffffffffffffffffffffffffffffffffffffffffffffffffffffffffffffff0483118215151615615ab857615ab7615c77565b5b828202905092915050565b6000615ace82615b6b565b9150615ad983615b6b565b925082821015615aec57615aeb615c77565b5b828203905092915050565b6000615b0282615b4b565b9050919050565b60008115159050919050565b6000819050919050565b60007fffffffff0000000000000000000000000000000000000000000000000000000082169050919050565b600073ffffffffffffffffffffffffffffffffffffffff82169050919050565b6000819050919050565b82818337600083830152505050565b60005b83811015615ba2578082015181840152602081019050615b87565b83811115615bb1576000848401525b50505050565b60006002820490506001821680615bcf57607f821691505b60208210811415615be357615be2615cd5565b5b50919050565b6000615bf482615b6b565b91507fffffffffffffffffffffffffffffffffffffffffffffffffffffffffffffffff821415615c2757615c26615c77565b5b600182019050919050565b6000819050919050565b6000819050919050565b6000615c5182615b6b565b9150615c5c83615b6b565b925082615c6c57615c6b615ca6565b5b828206905092915050565b7f4e487b7100000000000000000000000000000000000000000000000000000000600052601160045260246000fd5b7f4e487b7100000000000000000000000000000000000000000000000000000000600052601260045260246000fd5b7f4e487b7100000000000000000000000000000000000000000000000000000000600052602260045260246000fd5b7f4e487b7100000000000000000000000000000000000000000000000000000000600052604160045260246000fd5b6000601f19601f8301169050919050565b615d4d81615af7565b8114615d5857600080fd5b50565b615d6481615b09565b8114615d6f57600080fd5b50565b615d7b81615b15565b8114615d8657600080fd5b50565b615d9281615b1f565b8114615d9d57600080fd5b50565b615da981615b6b565b8114615db457600080fd5b5056fe4142434445464748494a4b4c4d4e4f505152535455565758595a6162636465666768696a6b6c6d6e6f707172737475767778797a303132333435363738392b2fa26469706673582212204ca10346107bb8d024ef72281cbbaaac9e3b65fbb754be91b4cd683c57dfe28064736f6c63430008000033",
  "linkReferences": {},
  "deployedLinkReferences": {}
}