{
  "_format": "hh-sol-artifact-1",
  "contractName": "MyEpicGame",
  "sourceName": "contracts/MyEpicGame.sol",
  "abi": [
    {
      "inputs": [
        {
          "internalType": "string[]",
          "name": "characterNames",
          "type": "string[]"
        },
        {
          "internalType": "string[]",
          "name": "characterImageURIs",
          "type": "string[]"
        },
        {
          "internalType": "uint256[]",
          "name": "characterHp",
          "type": "uint256[]"
        },
        {
          "internalType": "uint256[]",
          "name": "characterHpMod",
          "type": "uint256[]"
        },
        {
          "internalType": "uint256[]",
          "name": "characterAttackDmg",
          "type": "uint256[]"
        },
        {
          "internalType": "uint256[]",
          "name": "characterAttackDmgMod",
          "type": "uint256[]"
        },
        {
          "internalType": "uint256[]",
          "name": "characterCriticalChance",
          "type": "uint256[]"
        },
        {
          "internalType": "string",
          "name": "bossName",
          "type": "string"
        },
        {
          "internalType": "string",
          "name": "bossImageURI",
          "type": "string"
        },
        {
          "internalType": "uint256",
          "name": "bossHp",
          "type": "uint256"
        },
        {
          "internalType": "uint256",
          "name": "bossAttackDamage",
          "type": "uint256"
        }
      ],
      "stateMutability": "nonpayable",
      "type": "constructor"
    },
    {
      "anonymous": false,
      "inputs": [
        {
          "indexed": true,
          "internalType": "address",
          "name": "owner",
          "type": "address"
        },
        {
          "indexed": true,
          "internalType": "address",
          "name": "approved",
          "type": "address"
        },
        {
          "indexed": true,
          "internalType": "uint256",
          "name": "tokenId",
          "type": "uint256"
        }
      ],
      "name": "Approval",
      "type": "event"
    },
    {
      "anonymous": false,
      "inputs": [
        {
          "indexed": true,
          "internalType": "address",
          "name": "owner",
          "type": "address"
        },
        {
          "indexed": true,
          "internalType": "address",
          "name": "operator",
          "type": "address"
        },
        {
          "indexed": false,
          "internalType": "bool",
          "name": "approved",
          "type": "bool"
        }
      ],
      "name": "ApprovalForAll",
      "type": "event"
    },
    {
      "anonymous": false,
      "inputs": [
        {
          "indexed": false,
          "internalType": "uint256",
          "name": "newPlayerHp",
          "type": "uint256"
        },
        {
          "indexed": false,
          "internalType": "uint256",
          "name": "newBossHp",
          "type": "uint256"
        },
        {
          "indexed": false,
          "internalType": "bool",
          "name": "bossDead",
          "type": "bool"
        },
        {
          "indexed": false,
          "internalType": "bool",
          "name": "isCriticalHit",
          "type": "bool"
        }
      ],
      "name": "AttackComplete",
      "type": "event"
    },
    {
      "anonymous": false,
      "inputs": [],
      "name": "CharacterHealed",
      "type": "event"
    },
    {
      "anonymous": false,
      "inputs": [
        {
          "indexed": false,
          "internalType": "address",
          "name": "sender",
          "type": "address"
        },
        {
          "indexed": false,
          "internalType": "uint256",
          "name": "tokenId",
          "type": "uint256"
        },
        {
          "indexed": false,
          "internalType": "uint256",
          "name": "characterIndex",
          "type": "uint256"
        }
      ],
      "name": "CharacterNFTMinted",
      "type": "event"
    },
    {
      "anonymous": false,
      "inputs": [
        {
          "indexed": false,
          "internalType": "address",
          "name": "sender",
          "type": "address"
        },
        {
          "indexed": false,
          "internalType": "uint256",
          "name": "characterId",
          "type": "uint256"
        }
      ],
      "name": "RandomNumberRequested",
      "type": "event"
    },
    {
      "anonymous": false,
      "inputs": [
        {
          "indexed": true,
          "internalType": "address",
          "name": "from",
          "type": "address"
        },
        {
          "indexed": true,
          "internalType": "address",
          "name": "to",
          "type": "address"
        },
        {
          "indexed": true,
          "internalType": "uint256",
          "name": "tokenId",
          "type": "uint256"
        }
      ],
      "name": "Transfer",
      "type": "event"
    },
    {
      "inputs": [
        {
          "internalType": "address",
          "name": "to",
          "type": "address"
        },
        {
          "internalType": "uint256",
          "name": "tokenId",
          "type": "uint256"
        }
      ],
      "name": "approve",
      "outputs": [],
      "stateMutability": "nonpayable",
      "type": "function"
    },
    {
      "inputs": [],
      "name": "attackBoss",
      "outputs": [],
      "stateMutability": "nonpayable",
      "type": "function"
    },
    {
      "inputs": [
        {
          "internalType": "address",
          "name": "owner",
          "type": "address"
        }
      ],
      "name": "balanceOf",
      "outputs": [
        {
          "internalType": "uint256",
          "name": "",
          "type": "uint256"
        }
      ],
      "stateMutability": "view",
      "type": "function"
    },
    {
      "inputs": [],
      "name": "bigBoss",
      "outputs": [
        {
          "internalType": "string",
          "name": "name",
          "type": "string"
        },
        {
          "internalType": "string",
          "name": "imageURI",
          "type": "string"
        },
        {
          "internalType": "uint256",
          "name": "hp",
          "type": "uint256"
        },
        {
          "internalType": "uint256",
          "name": "maxHp",
          "type": "uint256"
        },
        {
          "internalType": "uint256",
          "name": "attackDamage",
          "type": "uint256"
        }
      ],
      "stateMutability": "view",
      "type": "function"
    },
    {
      "inputs": [
        {
          "internalType": "uint256",
          "name": "",
          "type": "uint256"
        }
      ],
      "name": "bossKillers",
      "outputs": [
        {
          "internalType": "address",
          "name": "",
          "type": "address"
        }
      ],
      "stateMutability": "view",
      "type": "function"
    },
    {
      "inputs": [],
      "name": "checkIfUserHasNFT",
      "outputs": [
        {
          "components": [
            {
              "internalType": "uint256",
              "name": "characterIndex",
              "type": "uint256"
            },
            {
              "internalType": "string",
              "name": "name",
              "type": "string"
            },
            {
              "internalType": "string",
              "name": "imageURI",
              "type": "string"
            },
            {
              "internalType": "uint256",
              "name": "hp",
              "type": "uint256"
            },
            {
              "internalType": "uint256",
              "name": "hpMod",
              "type": "uint256"
            },
            {
              "internalType": "uint256",
              "name": "maxHp",
              "type": "uint256"
            },
            {
              "internalType": "uint256",
              "name": "attackDamage",
              "type": "uint256"
            },
            {
              "internalType": "uint256",
              "name": "attackDamageMod",
              "type": "uint256"
            },
            {
              "internalType": "uint256",
              "name": "criticalChance",
              "type": "uint256"
            }
          ],
          "internalType": "struct MyEpicGame.CharacterAttributes",
          "name": "",
          "type": "tuple"
        }
      ],
      "stateMutability": "view",
      "type": "function"
    },
    {
      "inputs": [
        {
          "internalType": "uint256",
          "name": "_characterIndex",
          "type": "uint256"
        }
      ],
      "name": "enterGame",
      "outputs": [],
      "stateMutability": "payable",
      "type": "function"
    },
    {
      "inputs": [],
      "name": "getAllDefaultCharacters",
      "outputs": [
        {
          "components": [
            {
              "internalType": "uint256",
              "name": "characterIndex",
              "type": "uint256"
            },
            {
              "internalType": "string",
              "name": "name",
              "type": "string"
            },
            {
              "internalType": "string",
              "name": "imageURI",
              "type": "string"
            },
            {
              "internalType": "uint256",
              "name": "hp",
              "type": "uint256"
            },
            {
              "internalType": "uint256",
              "name": "hpMod",
              "type": "uint256"
            },
            {
              "internalType": "uint256",
              "name": "maxHp",
              "type": "uint256"
            },
            {
              "internalType": "uint256",
              "name": "attackDamage",
              "type": "uint256"
            },
            {
              "internalType": "uint256",
              "name": "attackDamageMod",
              "type": "uint256"
            },
            {
              "internalType": "uint256",
              "name": "criticalChance",
              "type": "uint256"
            }
          ],
          "internalType": "struct MyEpicGame.CharacterAttributes[]",
          "name": "",
          "type": "tuple[]"
        }
      ],
      "stateMutability": "view",
      "type": "function"
    },
    {
      "inputs": [],
      "name": "getAllNftHolderAddresses",
      "outputs": [
        {
          "internalType": "address[]",
          "name": "",
          "type": "address[]"
        }
      ],
      "stateMutability": "view",
      "type": "function"
    },
    {
      "inputs": [
        {
          "internalType": "uint256",
          "name": "tokenId",
          "type": "uint256"
        }
      ],
      "name": "getApproved",
      "outputs": [
        {
          "internalType": "address",
          "name": "",
          "type": "address"
        }
      ],
      "stateMutability": "view",
      "type": "function"
    },
    {
      "inputs": [],
      "name": "getBigBoss",
      "outputs": [
        {
          "components": [
            {
              "internalType": "string",
              "name": "name",
              "type": "string"
            },
            {
              "internalType": "string",
              "name": "imageURI",
              "type": "string"
            },
            {
              "internalType": "uint256",
              "name": "hp",
              "type": "uint256"
            },
            {
              "internalType": "uint256",
              "name": "maxHp",
              "type": "uint256"
            },
            {
              "internalType": "uint256",
              "name": "attackDamage",
              "type": "uint256"
            }
          ],
          "internalType": "struct MyEpicGame.BigBoss",
          "name": "",
          "type": "tuple"
        }
      ],
      "stateMutability": "view",
      "type": "function"
    },
    {
      "inputs": [],
      "name": "getBossKillers",
      "outputs": [
        {
          "internalType": "address[]",
          "name": "",
          "type": "address[]"
        }
      ],
      "stateMutability": "view",
      "type": "function"
    },
    {
      "inputs": [
        {
          "internalType": "address",
          "name": "_address",
          "type": "address"
        }
      ],
      "name": "getOneTokenByAddress",
      "outputs": [
        {
          "components": [
            {
              "internalType": "uint256",
              "name": "characterIndex",
              "type": "uint256"
            },
            {
              "internalType": "string",
              "name": "name",
              "type": "string"
            },
            {
              "internalType": "string",
              "name": "imageURI",
              "type": "string"
            },
            {
              "internalType": "uint256",
              "name": "hp",
              "type": "uint256"
            },
            {
              "internalType": "uint256",
              "name": "hpMod",
              "type": "uint256"
            },
            {
              "internalType": "uint256",
              "name": "maxHp",
              "type": "uint256"
            },
            {
              "internalType": "uint256",
              "name": "attackDamage",
              "type": "uint256"
            },
            {
              "internalType": "uint256",
              "name": "attackDamageMod",
              "type": "uint256"
            },
            {
              "internalType": "uint256",
              "name": "criticalChance",
              "type": "uint256"
            }
          ],
          "internalType": "struct MyEpicGame.CharacterAttributes",
          "name": "",
          "type": "tuple"
        }
      ],
      "stateMutability": "view",
      "type": "function"
    },
    {
      "inputs": [
        {
          "internalType": "address",
          "name": "owner",
          "type": "address"
        },
        {
          "internalType": "address",
          "name": "operator",
          "type": "address"
        }
      ],
      "name": "isApprovedForAll",
      "outputs": [
        {
          "internalType": "bool",
          "name": "",
          "type": "bool"
        }
      ],
      "stateMutability": "view",
      "type": "function"
    },
    {
      "inputs": [
        {
          "internalType": "address",
          "name": "_txnSender",
          "type": "address"
        },
        {
          "internalType": "uint256",
          "name": "_characterIndex",
          "type": "uint256"
        },
        {
          "internalType": "uint256",
          "name": "_randomness",
          "type": "uint256"
        }
      ],
      "name": "mintCharacterNFT",
      "outputs": [],
      "stateMutability": "nonpayable",
      "type": "function"
    },
    {
      "inputs": [],
      "name": "name",
      "outputs": [
        {
          "internalType": "string",
          "name": "",
          "type": "string"
        }
      ],
      "stateMutability": "view",
      "type": "function"
    },
    {
      "inputs": [
        {
          "internalType": "uint256",
          "name": "",
          "type": "uint256"
        }
      ],
      "name": "nftHolderAddresses",
      "outputs": [
        {
          "internalType": "address",
          "name": "",
          "type": "address"
        }
      ],
      "stateMutability": "view",
      "type": "function"
    },
    {
      "inputs": [
        {
          "internalType": "uint256",
          "name": "",
          "type": "uint256"
        }
      ],
      "name": "nftHolderAttributes",
      "outputs": [
        {
          "internalType": "uint256",
          "name": "characterIndex",
          "type": "uint256"
        },
        {
          "internalType": "string",
          "name": "name",
          "type": "string"
        },
        {
          "internalType": "string",
          "name": "imageURI",
          "type": "string"
        },
        {
          "internalType": "uint256",
          "name": "hp",
          "type": "uint256"
        },
        {
          "internalType": "uint256",
          "name": "hpMod",
          "type": "uint256"
        },
        {
          "internalType": "uint256",
          "name": "maxHp",
          "type": "uint256"
        },
        {
          "internalType": "uint256",
          "name": "attackDamage",
          "type": "uint256"
        },
        {
          "internalType": "uint256",
          "name": "attackDamageMod",
          "type": "uint256"
        },
        {
          "internalType": "uint256",
          "name": "criticalChance",
          "type": "uint256"
        }
      ],
      "stateMutability": "view",
      "type": "function"
    },
    {
      "inputs": [
        {
          "internalType": "address",
          "name": "",
          "type": "address"
        }
      ],
      "name": "nftHolders",
      "outputs": [
        {
          "internalType": "uint256",
          "name": "",
          "type": "uint256"
        }
      ],
      "stateMutability": "view",
      "type": "function"
    },
    {
      "inputs": [
        {
          "internalType": "uint256",
          "name": "tokenId",
          "type": "uint256"
        }
      ],
      "name": "ownerOf",
      "outputs": [
        {
          "internalType": "address",
          "name": "",
          "type": "address"
        }
      ],
      "stateMutability": "view",
      "type": "function"
    },
    {
      "inputs": [],
      "name": "randomResult",
      "outputs": [
        {
          "internalType": "uint256",
          "name": "",
          "type": "uint256"
        }
      ],
      "stateMutability": "view",
      "type": "function"
    },
    {
      "inputs": [
        {
          "internalType": "bytes32",
          "name": "requestId",
          "type": "bytes32"
        },
        {
          "internalType": "uint256",
          "name": "randomness",
          "type": "uint256"
        }
      ],
      "name": "rawFulfillRandomness",
      "outputs": [],
      "stateMutability": "nonpayable",
      "type": "function"
    },
    {
      "inputs": [],
      "name": "restoreHealth",
      "outputs": [],
      "stateMutability": "payable",
      "type": "function"
    },
    {
      "inputs": [
        {
          "internalType": "address",
          "name": "from",
          "type": "address"
        },
        {
          "internalType": "address",
          "name": "to",
          "type": "address"
        },
        {
          "internalType": "uint256",
          "name": "tokenId",
          "type": "uint256"
        }
      ],
      "name": "safeTransferFrom",
      "outputs": [],
      "stateMutability": "nonpayable",
      "type": "function"
    },
    {
      "inputs": [
        {
          "internalType": "address",
          "name": "from",
          "type": "address"
        },
        {
          "internalType": "address",
          "name": "to",
          "type": "address"
        },
        {
          "internalType": "uint256",
          "name": "tokenId",
          "type": "uint256"
        },
        {
          "internalType": "bytes",
          "name": "_data",
          "type": "bytes"
        }
      ],
      "name": "safeTransferFrom",
      "outputs": [],
      "stateMutability": "nonpayable",
      "type": "function"
    },
    {
      "inputs": [
        {
          "internalType": "address",
          "name": "operator",
          "type": "address"
        },
        {
          "internalType": "bool",
          "name": "approved",
          "type": "bool"
        }
      ],
      "name": "setApprovalForAll",
      "outputs": [],
      "stateMutability": "nonpayable",
      "type": "function"
    },
    {
      "inputs": [
        {
          "internalType": "bytes4",
          "name": "interfaceId",
          "type": "bytes4"
        }
      ],
      "name": "supportsInterface",
      "outputs": [
        {
          "internalType": "bool",
          "name": "",
          "type": "bool"
        }
      ],
      "stateMutability": "view",
      "type": "function"
    },
    {
      "inputs": [],
      "name": "symbol",
      "outputs": [
        {
          "internalType": "string",
          "name": "",
          "type": "string"
        }
      ],
      "stateMutability": "view",
      "type": "function"
    },
    {
      "inputs": [
        {
          "internalType": "uint256",
          "name": "_tokenId",
          "type": "uint256"
        }
      ],
      "name": "tokenURI",
      "outputs": [
        {
          "internalType": "string",
          "name": "",
          "type": "string"
        }
      ],
      "stateMutability": "view",
      "type": "function"
    },
    {
      "inputs": [
        {
          "internalType": "address",
          "name": "from",
          "type": "address"
        },
        {
          "internalType": "address",
          "name": "to",
          "type": "address"
        },
        {
          "internalType": "uint256",
          "name": "tokenId",
          "type": "uint256"
        }
      ],
      "name": "transferFrom",
      "outputs": [],
      "stateMutability": "nonpayable",
      "type": "function"
    }
  ],
  "bytecode": "0x60c06040523480156200001157600080fd5b506040516200717c3803806200717c833981810160405281019062000037919062000c44565b73b3dccb4cf7a26f6cf6b120cf5a73875b7bbc655b7301be23585060835e02b77ef475b0cc51aa1e07096040518060400160405280600581526020017f44484d49530000000000000000000000000000000000000000000000000000008152506040518060400160405280600581526020017f44484d49530000000000000000000000000000000000000000000000000000008152508160009080519060200190620000e5929190620009d7565b508060019080519060200190620000fe929190620009d7565b5050508173ffffffffffffffffffffffffffffffffffffffff1660a08173ffffffffffffffffffffffffffffffffffffffff1660601b815250508073ffffffffffffffffffffffffffffffffffffffff1660808173ffffffffffffffffffffffffffffffffffffffff1660601b8152505050507f2ed0feb3e7fd2022120aa84fab1945545a9f2ffc9076fd6156fa96eaff4c131160001b60138190555067016345785d8a00006014819055506040518060a0016040528085815260200184815260200183815260200183815260200182815250600d6000820151816000019080519060200190620001f1929190620009d7565b50602082015181600101908051906020019062000210929190620009d7565b50604082015181600201556060820151816003015560808201518160040155905050620003936040518060600160405280602a815260200162007152602a9139600d600001805462000262906200105e565b80601f016020809104026020016040519081016040528092919081815260200182805462000290906200105e565b8015620002e15780601f10620002b557610100808354040283529160200191620002e1565b820191906000526020600020905b815481529060010190602001808311620002c357829003601f168201915b5050505050600d60020154600d6001018054620002fe906200105e565b80601f01602080910402602001604051908101604052809291908181526020018280546200032c906200105e565b80156200037d5780601f1062000351576101008083540402835291602001916200037d565b820191906000526020600020905b8154815290600101906020018083116200035f57829003601f168201915b5050505050620008ec60201b62002a451760201c565b60005b8b51811015620008c35760086040518061012001604052808381526020018e8481518110620003ee577f4e487b7100000000000000000000000000000000000000000000000000000000600052603260045260246000fd5b602002602001015181526020018d848151811062000435577f4e487b7100000000000000000000000000000000000000000000000000000000600052603260045260246000fd5b602002602001015181526020018c84815181106200047c577f4e487b7100000000000000000000000000000000000000000000000000000000600052603260045260246000fd5b602002602001015181526020018b8481518110620004c3577f4e487b7100000000000000000000000000000000000000000000000000000000600052603260045260246000fd5b602002602001015181526020018c84815181106200050a577f4e487b7100000000000000000000000000000000000000000000000000000000600052603260045260246000fd5b602002602001015181526020018a848151811062000551577f4e487b7100000000000000000000000000000000000000000000000000000000600052603260045260246000fd5b6020026020010151815260200189848151811062000598577f4e487b7100000000000000000000000000000000000000000000000000000000600052603260045260246000fd5b60200260200101518152602001888481518110620005df577f4e487b7100000000000000000000000000000000000000000000000000000000600052603260045260246000fd5b602002602001015181525090806001815401808255809150506001900390600052602060002090600902016000909190919091506000820151816000015560208201518160010190805190602001906200063b929190620009d7565b5060408201518160020190805190602001906200065a929190620009d7565b50606082015181600301556080820151816004015560a0820151816005015560c0820151816006015560e0820151816007015561010082015181600801555050600060088281548110620006d7577f4e487b7100000000000000000000000000000000000000000000000000000000600052603260045260246000fd5b906000526020600020906009020160405180610120016040529081600082015481526020016001820180546200070d906200105e565b80601f01602080910402602001604051908101604052809291908181526020018280546200073b906200105e565b80156200078c5780601f1062000760576101008083540402835291602001916200078c565b820191906000526020600020905b8154815290600101906020018083116200076e57829003601f168201915b50505050508152602001600282018054620007a7906200105e565b80601f0160208091040260200160405190810160405280929190818152602001828054620007d5906200105e565b8015620008265780601f10620007fa5761010080835404028352916020019162000826565b820191906000526020600020905b8154815290600101906020018083116200080857829003601f168201915b5050505050815260200160038201548152602001600482015481526020016005820154815260200160068201548152602001600782015481526020016008820154815250509050620008ab6040518060600160405280602581526020016200712d60259139826020015183606001518460400151620008ec60201b62002a451760201c565b50600181620008bb919062000fc1565b905062000396565b50620008db60076200099860201b62002ae71760201c565b50505050505050505050506200114c565b620009928484848460405160240162000909949392919062000e7e565b6040516020818303038152906040527f8d142cdd000000000000000000000000000000000000000000000000000000007bffffffffffffffffffffffffffffffffffffffffffffffffffffffff19166020820180517bffffffffffffffffffffffffffffffffffffffffffffffffffffffff8381831617835250505050620009ae60201b60201c565b50505050565b6001816000016000828254019250508190555050565b60008151905060006a636f6e736f6c652e6c6f679050602083016000808483855afa5050505050565b828054620009e5906200105e565b90600052602060002090601f01602090048101928262000a09576000855562000a55565b82601f1062000a2457805160ff191683800117855562000a55565b8280016001018555821562000a55579182015b8281111562000a5457825182559160200191906001019062000a37565b5b50905062000a64919062000a68565b5090565b5b8082111562000a8357600081600090555060010162000a69565b5090565b600062000a9e62000a988462000f14565b62000ee0565b9050808382526020820190508260005b8581101562000ae2578151850162000ac7888262000c00565b84526020840193506020830192505060018101905062000aae565b5050509392505050565b600062000b0362000afd8462000f43565b62000ee0565b9050808382526020820190508285602086028201111562000b2357600080fd5b60005b8581101562000b57578162000b3c888262000c2d565b84526020840193506020830192505060018101905062000b26565b5050509392505050565b600062000b7862000b728462000f72565b62000ee0565b90508281526020810184848401111562000b9157600080fd5b62000b9e84828562001028565b509392505050565b600082601f83011262000bb857600080fd5b815162000bca84826020860162000a87565b91505092915050565b600082601f83011262000be557600080fd5b815162000bf784826020860162000aec565b91505092915050565b600082601f83011262000c1257600080fd5b815162000c2484826020860162000b61565b91505092915050565b60008151905062000c3e8162001132565b92915050565b60008060008060008060008060008060006101608c8e03121562000c6757600080fd5b60008c015167ffffffffffffffff81111562000c8257600080fd5b62000c908e828f0162000ba6565b9b505060208c015167ffffffffffffffff81111562000cae57600080fd5b62000cbc8e828f0162000ba6565b9a505060408c015167ffffffffffffffff81111562000cda57600080fd5b62000ce88e828f0162000bd3565b99505060608c015167ffffffffffffffff81111562000d0657600080fd5b62000d148e828f0162000bd3565b98505060808c015167ffffffffffffffff81111562000d3257600080fd5b62000d408e828f0162000bd3565b97505060a08c015167ffffffffffffffff81111562000d5e57600080fd5b62000d6c8e828f0162000bd3565b96505060c08c015167ffffffffffffffff81111562000d8a57600080fd5b62000d988e828f0162000bd3565b95505060e08c015167ffffffffffffffff81111562000db657600080fd5b62000dc48e828f0162000c00565b9450506101008c015167ffffffffffffffff81111562000de357600080fd5b62000df18e828f0162000c00565b93505061012062000e058e828f0162000c2d565b92505061014062000e198e828f0162000c2d565b9150509295989b509295989b9093969950565b600062000e398262000fa5565b62000e45818562000fb0565b935062000e5781856020860162001028565b62000e628162001121565b840191505092915050565b62000e78816200101e565b82525050565b6000608082019050818103600083015262000e9a818762000e2c565b9050818103602083015262000eb0818662000e2c565b905062000ec1604083018562000e6d565b818103606083015262000ed5818462000e2c565b905095945050505050565b6000604051905081810181811067ffffffffffffffff8211171562000f0a5762000f09620010f2565b5b8060405250919050565b600067ffffffffffffffff82111562000f325762000f31620010f2565b5b602082029050602081019050919050565b600067ffffffffffffffff82111562000f615762000f60620010f2565b5b602082029050602081019050919050565b600067ffffffffffffffff82111562000f905762000f8f620010f2565b5b601f19601f8301169050602081019050919050565b600081519050919050565b600082825260208201905092915050565b600062000fce826200101e565b915062000fdb836200101e565b9250827fffffffffffffffffffffffffffffffffffffffffffffffffffffffffffffffff0382111562001013576200101262001094565b5b828201905092915050565b6000819050919050565b60005b83811015620010485780820151818401526020810190506200102b565b8381111562001058576000848401525b50505050565b600060028204905060018216806200107757607f821691505b602082108114156200108e576200108d620010c3565b5b50919050565b7f4e487b7100000000000000000000000000000000000000000000000000000000600052601160045260246000fd5b7f4e487b7100000000000000000000000000000000000000000000000000000000600052602260045260246000fd5b7f4e487b7100000000000000000000000000000000000000000000000000000000600052604160045260246000fd5b6000601f19601f8301169050919050565b6200113d816200101e565b81146200114957600080fd5b50565b60805160601c60a05160601c615fa762001186600039600081816116940152613941015260008181612fd301526139050152615fa76000f3fe6080604052600436106101cd5760003560e01c806387faaeb9116100f7578063b953084e11610095578063d06a1d7d11610064578063d06a1d7d1461068e578063d4f24c5b146106cb578063e985e9c5146106e2578063ec6996b81461071f576101cd565b8063b953084e146105d0578063ba982d53146105fb578063c87b56dd14610626578063c8cf27f414610663576101cd565b806398da4c95116100d157806398da4c951461050a578063a22cb4651461054f578063a9c3267914610578578063b88d4fde146105a7576101cd565b806387faaeb9146104ac57806394985ddd146104b657806395d89b41146104df576101cd565b806342619f661161016f5780636352211e1161013e5780636352211e146103ca57806370a08231146104075780637397c85e146104445780637df124a11461046f576101cd565b806342619f661461033157806342842e0e1461035c57806343d6582b1461038557806361453a13146103a1576101cd565b8063081812fc116101ab578063081812fc14610265578063095ea7b3146102a25780630fd70181146102cb57806323b872dd14610308576101cd565b806301ffc9a7146101d25780630665f9611461020f57806306fdde031461023a575b600080fd5b3480156101de57600080fd5b506101f960048036038101906101f4919061432e565b61075c565b604051610206919061536a565b60405180910390f35b34801561021b57600080fd5b5061022461083e565b60405161023191906157dd565b60405180910390f35b34801561024657600080fd5b5061024f61099a565b60405161025c91906153f3565b60405180910390f35b34801561027157600080fd5b5061028c60048036038101906102879190614380565b610a2c565b6040516102999190615221565b60405180910390f35b3480156102ae57600080fd5b506102c960048036038101906102c4919061423e565b610ab1565b005b3480156102d757600080fd5b506102f260048036038101906102ed9190614380565b610bc9565b6040516102ff9190615221565b60405180910390f35b34801561031457600080fd5b5061032f600480360381019061032a9190614138565b610c08565b005b34801561033d57600080fd5b50610346610c68565b6040516103539190615821565b60405180910390f35b34801561036857600080fd5b50610383600480360381019061037e9190614138565b610c6e565b005b61039f600480360381019061039a9190614380565b610c8e565b005b3480156103ad57600080fd5b506103c860048036038101906103c3919061427a565b610d44565b005b3480156103d657600080fd5b506103f160048036038101906103ec9190614380565b6113d5565b6040516103fe9190615221565b60405180910390f35b34801561041357600080fd5b5061042e600480360381019061042991906140d3565b611487565b60405161043b9190615821565b60405180910390f35b34801561045057600080fd5b5061045961153f565b6040516104669190615326565b60405180910390f35b34801561047b57600080fd5b50610496600480360381019061049191906140d3565b6115cd565b6040516104a39190615821565b60405180910390f35b6104b46115e5565b005b3480156104c257600080fd5b506104dd60048036038101906104d891906142f2565b611692565b005b3480156104eb57600080fd5b506104f461172e565b60405161050191906153f3565b60405180910390f35b34801561051657600080fd5b50610531600480360381019061052c9190614380565b6117c0565b6040516105469998979695949392919061583c565b60405180910390f35b34801561055b57600080fd5b5061057660048036038101906105719190614202565b61191e565b005b34801561058457600080fd5b5061058d611a9f565b60405161059e9594939291906154c2565b60405180910390f35b3480156105b357600080fd5b506105ce60048036038101906105c99190614187565b611bd3565b005b3480156105dc57600080fd5b506105e5611c35565b6040516105f29190615348565b60405180910390f35b34801561060757600080fd5b50610610611dff565b60405161061d9190615326565b60405180910390f35b34801561063257600080fd5b5061064d60048036038101906106489190614380565b611e8d565b60405161065a91906153f3565b60405180910390f35b34801561066f57600080fd5b506106786120dc565b60405161068591906157ff565b60405180910390f35b34801561069a57600080fd5b506106b560048036038101906106b09190614380565b6122d3565b6040516106c29190615221565b60405180910390f35b3480156106d757600080fd5b506106e0612312565b005b3480156106ee57600080fd5b50610709600480360381019061070491906140fc565b6127d4565b604051610716919061536a565b60405180910390f35b34801561072b57600080fd5b50610746600480360381019061074191906140d3565b612868565b60405161075391906157ff565b60405180910390f35b60007f80ac58cd000000000000000000000000000000000000000000000000000000007bffffffffffffffffffffffffffffffffffffffffffffffffffffffff1916827bffffffffffffffffffffffffffffffffffffffffffffffffffffffff1916148061082757507f5b5e139f000000000000000000000000000000000000000000000000000000007bffffffffffffffffffffffffffffffffffffffffffffffffffffffff1916827bffffffffffffffffffffffffffffffffffffffffffffffffffffffff1916145b80610837575061083682612afd565b5b9050919050565b610846613ea5565b600d6040518060a001604052908160008201805461086390615c18565b80601f016020809104026020016040519081016040528092919081815260200182805461088f90615c18565b80156108dc5780601f106108b1576101008083540402835291602001916108dc565b820191906000526020600020905b8154815290600101906020018083116108bf57829003601f168201915b505050505081526020016001820180546108f590615c18565b80601f016020809104026020016040519081016040528092919081815260200182805461092190615c18565b801561096e5780601f106109435761010080835404028352916020019161096e565b820191906000526020600020905b81548152906001019060200180831161095157829003601f168201915b505050505081526020016002820154815260200160038201548152602001600482015481525050905090565b6060600080546109a990615c18565b80601f01602080910402602001604051908101604052809291908181526020018280546109d590615c18565b8015610a225780601f106109f757610100808354040283529160200191610a22565b820191906000526020600020905b815481529060010190602001808311610a0557829003601f168201915b5050505050905090565b6000610a3782612b67565b610a76576040517f08c379a0000000000000000000000000000000000000000000000000000000008152600401610a6d9061573d565b60405180910390fd5b6004600083815260200190815260200160002060009054906101000a900473ffffffffffffffffffffffffffffffffffffffff169050919050565b6000610abc826113d5565b90508073ffffffffffffffffffffffffffffffffffffffff168373ffffffffffffffffffffffffffffffffffffffff161415610b2d576040517f08c379a0000000000000000000000000000000000000000000000000000000008152600401610b249061579d565b60405180910390fd5b8073ffffffffffffffffffffffffffffffffffffffff16610b4c612bd3565b73ffffffffffffffffffffffffffffffffffffffff161480610b7b5750610b7a81610b75612bd3565b6127d4565b5b610bba576040517f08c379a0000000000000000000000000000000000000000000000000000000008152600401610bb19061569d565b60405180910390fd5b610bc48383612bdb565b505050565b600a8181548110610bd957600080fd5b906000526020600020016000915054906101000a900473ffffffffffffffffffffffffffffffffffffffff1681565b610c19610c13612bd3565b82612c94565b610c58576040517f08c379a0000000000000000000000000000000000000000000000000000000008152600401610c4f906157bd565b60405180910390fd5b610c63838383612d72565b505050565b60155481565b610c8983838360405180602001604052806000815250611bd3565b505050565b67016345785d8a0000341015610ca357600080fd5b610cac81612fce565b610ceb6040518060400160405280601481526020017f636f6e74726163742062616c616e63653a202573000000000000000000000000815250476131a2565b610d416040518060400160405280601681526020017f6d73672e73656e6465722062616c616e63653a202573000000000000000000008152503373ffffffffffffffffffffffffffffffffffffffff16316131a2565b50565b6000610d50600761323e565b9050610d5c848261324c565b6000606483610d6b9190615ca7565b905060006064808386610d7e9190615b24565b610d889190615a99565b610d929190615ca7565b9050600060648360088881548110610dd3577f4e487b7100000000000000000000000000000000000000000000000000000000600052603260045260246000fd5b906000526020600020906009020160040154610def9190615aca565b610df99190615a99565b60088781548110610e33577f4e487b7100000000000000000000000000000000000000000000000000000000600052603260045260246000fd5b906000526020600020906009020160030154610e4f9190615a43565b9050600060648360088981548110610e90577f4e487b7100000000000000000000000000000000000000000000000000000000600052603260045260246000fd5b906000526020600020906009020160070154610eac9190615aca565b610eb69190615a99565b60088881548110610ef0577f4e487b7100000000000000000000000000000000000000000000000000000000600052603260045260246000fd5b906000526020600020906009020160060154610f0c9190615a43565b905060405180610120016040528088815260200160088981548110610f5a577f4e487b7100000000000000000000000000000000000000000000000000000000600052603260045260246000fd5b90600052602060002090600902016001018054610f7690615c18565b80601f0160208091040260200160405190810160405280929190818152602001828054610fa290615c18565b8015610fef5780601f10610fc457610100808354040283529160200191610fef565b820191906000526020600020905b815481529060010190602001808311610fd257829003601f168201915b5050505050815260200160088981548110611033577f4e487b7100000000000000000000000000000000000000000000000000000000600052603260045260246000fd5b9060005260206000209060090201600201805461104f90615c18565b80601f016020809104026020016040519081016040528092919081815260200182805461107b90615c18565b80156110c85780601f1061109d576101008083540402835291602001916110c8565b820191906000526020600020905b8154815290600101906020018083116110ab57829003601f168201915b5050505050815260200183815260200160088981548110611112577f4e487b7100000000000000000000000000000000000000000000000000000000600052603260045260246000fd5b90600052602060002090600902016004015481526020018381526020018281526020016008898154811061116f577f4e487b7100000000000000000000000000000000000000000000000000000000600052603260045260246000fd5b9060005260206000209060090201600701548152602001600889815481106111c0577f4e487b7100000000000000000000000000000000000000000000000000000000600052603260045260246000fd5b9060005260206000209060090201600801548152506009600087815260200190815260200160002060008201518160000155602082015181600101908051906020019061120e929190613ed4565b50604082015181600201908051906020019061122b929190613ed4565b50606082015181600301556080820151816004015560a0820151816005015560c0820151816006015560e0820151816007015561010082015181600801559050506112bc6040518060600160405280602f8152602001615e3e602f9139600960008881526020019081526020016000206004015460096000898152602001908152602001600020600701548761326a565b600a889080600181540180825580915050600190039060005260206000200160009091909190916101000a81548173ffffffffffffffffffffffffffffffffffffffff021916908373ffffffffffffffffffffffffffffffffffffffff1602179055506113426040518060600160405280602e8152602001615ed5602e9139868961330c565b84601260008a73ffffffffffffffffffffffffffffffffffffffff1673ffffffffffffffffffffffffffffffffffffffff168152602001908152602001600020819055506113906007612ae7565b7f4bc303fd457a97b4691b9af582ce71868a3d258638c8d4f8c60988a0f0bfb8cd8886896040516113c3939291906152ef565b60405180910390a15050505050505050565b6000806002600084815260200190815260200160002060009054906101000a900473ffffffffffffffffffffffffffffffffffffffff169050600073ffffffffffffffffffffffffffffffffffffffff168173ffffffffffffffffffffffffffffffffffffffff16141561147e576040517f08c379a0000000000000000000000000000000000000000000000000000000008152600401611475906156dd565b60405180910390fd5b80915050919050565b60008073ffffffffffffffffffffffffffffffffffffffff168273ffffffffffffffffffffffffffffffffffffffff1614156114f8576040517f08c379a00000000000000000000000000000000000000000000000000000000081526004016114ef906156bd565b60405180910390fd5b600360008373ffffffffffffffffffffffffffffffffffffffff1673ffffffffffffffffffffffffffffffffffffffff168152602001908152602001600020549050919050565b6060600b8054806020026020016040519081016040528092919081815260200182805480156115c357602002820191906000526020600020905b8160009054906101000a900473ffffffffffffffffffffffffffffffffffffffff1673ffffffffffffffffffffffffffffffffffffffff1681526020019060010190808311611579575b5050505050905090565b60126020528060005260406000206000915090505481565b6701bc16d674ec80003410156115fa57600080fd5b6000601260003373ffffffffffffffffffffffffffffffffffffffff1673ffffffffffffffffffffffffffffffffffffffff1681526020019081526020016000205490506000600960008381526020019081526020016000209050806005015481600301819055507f6ce9e38229e9dc4c2661c2cbae54e8fb3bd68fe62eedeaaa4e83f8242191ec6260405160405180910390a15050565b7f000000000000000000000000000000000000000000000000000000000000000073ffffffffffffffffffffffffffffffffffffffff163373ffffffffffffffffffffffffffffffffffffffff1614611720576040517f08c379a00000000000000000000000000000000000000000000000000000000081526004016117179061577d565b60405180910390fd5b61172a82826133ab565b5050565b60606001805461173d90615c18565b80601f016020809104026020016040519081016040528092919081815260200182805461176990615c18565b80156117b65780601f1061178b576101008083540402835291602001916117b6565b820191906000526020600020905b81548152906001019060200180831161179957829003601f168201915b5050505050905090565b60096020528060005260406000206000915090508060000154908060010180546117e990615c18565b80601f016020809104026020016040519081016040528092919081815260200182805461181590615c18565b80156118625780601f1061183757610100808354040283529160200191611862565b820191906000526020600020905b81548152906001019060200180831161184557829003601f168201915b50505050509080600201805461187790615c18565b80601f01602080910402602001604051908101604052809291908181526020018280546118a390615c18565b80156118f05780601f106118c5576101008083540402835291602001916118f0565b820191906000526020600020905b8154815290600101906020018083116118d357829003601f168201915b5050505050908060030154908060040154908060050154908060060154908060070154908060080154905089565b611926612bd3565b73ffffffffffffffffffffffffffffffffffffffff168273ffffffffffffffffffffffffffffffffffffffff161415611994576040517f08c379a000000000000000000000000000000000000000000000000000000000815260040161198b9061563d565b60405180910390fd5b80600560006119a1612bd3565b73ffffffffffffffffffffffffffffffffffffffff1673ffffffffffffffffffffffffffffffffffffffff16815260200190815260200160002060008473ffffffffffffffffffffffffffffffffffffffff1673ffffffffffffffffffffffffffffffffffffffff16815260200190815260200160002060006101000a81548160ff0219169083151502179055508173ffffffffffffffffffffffffffffffffffffffff16611a4e612bd3565b73ffffffffffffffffffffffffffffffffffffffff167f17307eab39ab6107e8899845ad3d59bd9653f200f220920489ca2b5937696c3183604051611a93919061536a565b60405180910390a35050565b600d806000018054611ab090615c18565b80601f0160208091040260200160405190810160405280929190818152602001828054611adc90615c18565b8015611b295780601f10611afe57610100808354040283529160200191611b29565b820191906000526020600020905b815481529060010190602001808311611b0c57829003601f168201915b505050505090806001018054611b3e90615c18565b80601f0160208091040260200160405190810160405280929190818152602001828054611b6a90615c18565b8015611bb75780601f10611b8c57610100808354040283529160200191611bb7565b820191906000526020600020905b815481529060010190602001808311611b9a57829003601f168201915b5050505050908060020154908060030154908060040154905085565b611be4611bde612bd3565b83612c94565b611c23576040517f08c379a0000000000000000000000000000000000000000000000000000000008152600401611c1a906157bd565b60405180910390fd5b611c2f8484848461346a565b50505050565b60606008805480602002602001604051908101604052809291908181526020016000905b82821015611df657838290600052602060002090600902016040518061012001604052908160008201548152602001600182018054611c9790615c18565b80601f0160208091040260200160405190810160405280929190818152602001828054611cc390615c18565b8015611d105780601f10611ce557610100808354040283529160200191611d10565b820191906000526020600020905b815481529060010190602001808311611cf357829003601f168201915b50505050508152602001600282018054611d2990615c18565b80601f0160208091040260200160405190810160405280929190818152602001828054611d5590615c18565b8015611da25780601f10611d7757610100808354040283529160200191611da2565b820191906000526020600020905b815481529060010190602001808311611d8557829003601f168201915b50505050508152602001600382015481526020016004820154815260200160058201548152602001600682015481526020016007820154815260200160088201548152505081526020019060010190611c59565b50505050905090565b6060600a805480602002602001604051908101604052809291908181526020018280548015611e8357602002820191906000526020600020905b8160009054906101000a900473ffffffffffffffffffffffffffffffffffffffff1673ffffffffffffffffffffffffffffffffffffffff1681526020019060010190808311611e39575b5050505050905090565b60606000600960008481526020019081526020016000206040518061012001604052908160008201548152602001600182018054611eca90615c18565b80601f0160208091040260200160405190810160405280929190818152602001828054611ef690615c18565b8015611f435780601f10611f1857610100808354040283529160200191611f43565b820191906000526020600020905b815481529060010190602001808311611f2657829003601f168201915b50505050508152602001600282018054611f5c90615c18565b80601f0160208091040260200160405190810160405280929190818152602001828054611f8890615c18565b8015611fd55780601f10611faa57610100808354040283529160200191611fd5565b820191906000526020600020905b815481529060010190602001808311611fb857829003601f168201915b5050505050815260200160038201548152602001600482015481526020016005820154815260200160068201548152602001600782015481526020016008820154815250509050600061202b82606001516134c6565b9050600061203c8360a001516134c6565b9050600061204d8460c001516134c6565b9050600061205f8561010001516134c6565b905060006120a786602001516120748a6134c6565b8860400151888888886040516020016120939796959493929190615116565b604051602081830303815290604052613673565b90506000816040516020016120bc91906151d3565b604051602081830303815290604052905080975050505050505050919050565b6120e4613f5a565b6000601260003373ffffffffffffffffffffffffffffffffffffffff1673ffffffffffffffffffffffffffffffffffffffff16815260200190815260200160002054905060008111156122c25760096000828152602001908152602001600020604051806101200160405290816000820154815260200160018201805461216a90615c18565b80601f016020809104026020016040519081016040528092919081815260200182805461219690615c18565b80156121e35780601f106121b8576101008083540402835291602001916121e3565b820191906000526020600020905b8154815290600101906020018083116121c657829003601f168201915b505050505081526020016002820180546121fc90615c18565b80601f016020809104026020016040519081016040528092919081815260200182805461222890615c18565b80156122755780601f1061224a57610100808354040283529160200191612275565b820191906000526020600020905b81548152906001019060200180831161225857829003601f168201915b5050505050815260200160038201548152602001600482015481526020016005820154815260200160068201548152602001600782015481526020016008820154815250509150506122d0565b6122ca613f5a565b80925050505b90565b600b81815481106122e357600080fd5b906000526020600020016000915054906101000a900473ffffffffffffffffffffffffffffffffffffffff1681565b6000601260003373ffffffffffffffffffffffffffffffffffffffff1673ffffffffffffffffffffffffffffffffffffffff168152602001908152602001600020549050600060096000838152602001908152602001600020905060006001606442446040516020016123869291906151f5565b6040516020818303038152906040528051906020012060001c6123a99190615ca7565b6123b39190615a43565b9050600080836008015483106123ca5760016123cd565b60025b60ff16905060008460080154841090506124956040518060600160405280603c8152602001615f36603c913986600101805461240890615c18565b80601f016020809104026020016040519081016040528092919081815260200182805461243490615c18565b80156124815780601f1061245657610100808354040283529160200191612481565b820191906000526020600020905b81548152906001019060200180831161246457829003601f168201915b505050505087600301548860060154613831565b61256d6040518060400160405280601b81526020017f426f73732025732068617320257320485020616e642025732041440000000000815250600d60000180546124de90615c18565b80601f016020809104026020016040519081016040528092919081815260200182805461250a90615c18565b80156125575780601f1061252c57610100808354040283529160200191612557565b820191906000526020600020905b81548152906001019060200180831161253a57829003601f168201915b5050505050600d60020154600d60040154613831565b60008560030154116125b4576040517f08c379a00000000000000000000000000000000000000000000000000000000081526004016125ab906156fd565b60405180910390fd5b8185600601546125c49190615aca565b600d60020154101561269e5760c8600d60030160008282546125e69190615a43565b92505081905550600d60030154600d6002018190555060019250600b339080600181540180825580915050600190039060005260206000200160009091909190916101000a81548173ffffffffffffffffffffffffffffffffffffffff021916908373ffffffffffffffffffffffffffffffffffffffff1602179055503373ffffffffffffffffffffffffffffffffffffffff166108fc479081150290604051600060405180830381858888f19350505050506126c8565b8185600601546126ae9190615aca565b600d600201546126be9190615b24565b600d600201819055505b8261270c57600d60040154856003015410156126ed576000856003018190555061270b565b600d6004015485600301546127029190615b24565b85600301819055505b5b60006001831161273457604051806060016040528060258152602001615e196025913961274e565b604051806060016040528060338152602001615f03603391395b905061275f81600d600201546131a2565b612785604051806060016040528060288152602001615ead6028913987600301546131a2565b7f1824a9c93adf0f7c39a6858fe842fa8820959f97a64577da07532cd6988f36438660030154600d6002015486856040516127c394939291906158d7565b60405180910390a150505050505050565b6000600560008473ffffffffffffffffffffffffffffffffffffffff1673ffffffffffffffffffffffffffffffffffffffff16815260200190815260200160002060008373ffffffffffffffffffffffffffffffffffffffff1673ffffffffffffffffffffffffffffffffffffffff16815260200190815260200160002060009054906101000a900460ff16905092915050565b612870613f5a565b6000601260008473ffffffffffffffffffffffffffffffffffffffff1673ffffffffffffffffffffffffffffffffffffffff1681526020019081526020016000205490506009600082815260200190815260200160002060405180610120016040529081600082015481526020016001820180546128ed90615c18565b80601f016020809104026020016040519081016040528092919081815260200182805461291990615c18565b80156129665780601f1061293b57610100808354040283529160200191612966565b820191906000526020600020905b81548152906001019060200180831161294957829003601f168201915b5050505050815260200160028201805461297f90615c18565b80601f01602080910402602001604051908101604052809291908181526020018280546129ab90615c18565b80156129f85780601f106129cd576101008083540402835291602001916129f8565b820191906000526020600020905b8154815290600101906020018083116129db57829003601f168201915b505050505081526020016003820154815260200160048201548152602001600582015481526020016006820154815260200160078201548152602001600882015481525050915050919050565b612ae184848484604051602401612a5f9493929190615415565b6040516020818303038152906040527f8d142cdd000000000000000000000000000000000000000000000000000000007bffffffffffffffffffffffffffffffffffffffffffffffffffffffff19166020820180517bffffffffffffffffffffffffffffffffffffffffffffffffffffffff83818316178352505050506138d3565b50505050565b6001816000016000828254019250508190555050565b60007f01ffc9a7000000000000000000000000000000000000000000000000000000007bffffffffffffffffffffffffffffffffffffffffffffffffffffffff1916827bffffffffffffffffffffffffffffffffffffffffffffffffffffffff1916149050919050565b60008073ffffffffffffffffffffffffffffffffffffffff166002600084815260200190815260200160002060009054906101000a900473ffffffffffffffffffffffffffffffffffffffff1673ffffffffffffffffffffffffffffffffffffffff1614159050919050565b600033905090565b816004600083815260200190815260200160002060006101000a81548173ffffffffffffffffffffffffffffffffffffffff021916908373ffffffffffffffffffffffffffffffffffffffff160217905550808273ffffffffffffffffffffffffffffffffffffffff16612c4e836113d5565b73ffffffffffffffffffffffffffffffffffffffff167f8c5be1e5ebec7d5bd14f71427d1e84f3dd0314c0f7b2291e5b200ac8c7c3b92560405160405180910390a45050565b6000612c9f82612b67565b612cde576040517f08c379a0000000000000000000000000000000000000000000000000000000008152600401612cd59061567d565b60405180910390fd5b6000612ce9836113d5565b90508073ffffffffffffffffffffffffffffffffffffffff168473ffffffffffffffffffffffffffffffffffffffff161480612d5857508373ffffffffffffffffffffffffffffffffffffffff16612d4084610a2c565b73ffffffffffffffffffffffffffffffffffffffff16145b80612d695750612d6881856127d4565b5b91505092915050565b8273ffffffffffffffffffffffffffffffffffffffff16612d92826113d5565b73ffffffffffffffffffffffffffffffffffffffff1614612de8576040517f08c379a0000000000000000000000000000000000000000000000000000000008152600401612ddf9061575d565b60405180910390fd5b600073ffffffffffffffffffffffffffffffffffffffff168273ffffffffffffffffffffffffffffffffffffffff161415612e58576040517f08c379a0000000000000000000000000000000000000000000000000000000008152600401612e4f9061561d565b60405180910390fd5b612e638383836138fc565b612e6e600082612bdb565b6001600360008573ffffffffffffffffffffffffffffffffffffffff1673ffffffffffffffffffffffffffffffffffffffff1681526020019081526020016000206000828254612ebe9190615b24565b925050819055506001600360008473ffffffffffffffffffffffffffffffffffffffff1673ffffffffffffffffffffffffffffffffffffffff1681526020019081526020016000206000828254612f159190615a43565b92505081905550816002600083815260200190815260200160002060006101000a81548173ffffffffffffffffffffffffffffffffffffffff021916908373ffffffffffffffffffffffffffffffffffffffff160217905550808273ffffffffffffffffffffffffffffffffffffffff168473ffffffffffffffffffffffffffffffffffffffff167fddf252ad1be2c89b69c2b068fc378daa952ba7f163c4a11628f55a4df523b3ef60405160405180910390a4505050565b6014547f000000000000000000000000000000000000000000000000000000000000000073ffffffffffffffffffffffffffffffffffffffff166370a08231306040518263ffffffff1660e01b815260040161302a9190615221565b60206040518083038186803b15801561304257600080fd5b505afa158015613056573d6000803e3d6000fd5b505050506040513d601f19601f8201168201806040525081019061307a91906143a9565b10156130bb576040517f08c379a00000000000000000000000000000000000000000000000000000000081526004016130b29061565d565b60405180910390fd5b600060405180604001604052803373ffffffffffffffffffffffffffffffffffffffff16815260200183815250905060006130fa601354601454613901565b905081600c600083815260200190815260200160002060008201518160000160006101000a81548173ffffffffffffffffffffffffffffffffffffffff021916908373ffffffffffffffffffffffffffffffffffffffff160217905550602082015181600101559050507f7a2348cf64e865f131932f9cd2cff519873b1bf4683107b8f71b371d303026123384604051613195929190615288565b60405180910390a1505050565b61323a82826040516024016131b8929190615523565b6040516020818303038152906040527f9710a9d0000000000000000000000000000000000000000000000000000000007bffffffffffffffffffffffffffffffffffffffffffffffffffffffff19166020820180517bffffffffffffffffffffffffffffffffffffffffffffffffffffffff83818316178352505050506138d3565b5050565b600081600001549050919050565b613266828260405180602001604052806000815250613a63565b5050565b613306848484846040516024016132849493929190615591565b6040516020818303038152906040527f08ee5666000000000000000000000000000000000000000000000000000000007bffffffffffffffffffffffffffffffffffffffffffffffffffffffff19166020820180517bffffffffffffffffffffffffffffffffffffffffffffffffffffffff83818316178352505050506138d3565b50505050565b6133a683838360405160240161332493929190615553565b6040516020818303038152906040527f969cdd03000000000000000000000000000000000000000000000000000000007bffffffffffffffffffffffffffffffffffffffffffffffffffffffff19166020820180517bffffffffffffffffffffffffffffffffffffffffffffffffffffffff83818316178352505050506138d3565b505050565b3073ffffffffffffffffffffffffffffffffffffffff166361453a13600c600085815260200190815260200160002060000160009054906101000a900473ffffffffffffffffffffffffffffffffffffffff16600c600086815260200190815260200160002060010154846040518463ffffffff1660e01b8152600401613434939291906152ef565b600060405180830381600087803b15801561344e57600080fd5b505af1158015613462573d6000803e3d6000fd5b505050505050565b613475848484612d72565b61348184848484613abe565b6134c0576040517f08c379a00000000000000000000000000000000000000000000000000000000081526004016134b7906155dd565b60405180910390fd5b50505050565b6060600082141561350e576040518060400160405280600181526020017f3000000000000000000000000000000000000000000000000000000000000000815250905061366e565b600082905060005b6000821461354057808061352990615c4a565b915050600a826135399190615a99565b9150613516565b60008167ffffffffffffffff811115613582577f4e487b7100000000000000000000000000000000000000000000000000000000600052604160045260246000fd5b6040519080825280601f01601f1916602001820160405280156135b45781602001600182028036833780820191505090505b5090505b60008514613667576001826135cd9190615b24565b9150600a856135dc9190615ca7565b60306135e89190615a43565b60f81b818381518110613624577f4e487b7100000000000000000000000000000000000000000000000000000000600052603260045260246000fd5b60200101907effffffffffffffffffffffffffffffffffffffffffffffffffffffffffffff1916908160001a905350600a856136609190615a99565b94506135b8565b8093505050505b919050565b6060600082519050600081141561369c576040518060200160405280600081525091505061382c565b600060036002836136ad9190615a43565b6136b79190615a99565b60046136c39190615aca565b905060006020826136d49190615a43565b67ffffffffffffffff811115613713577f4e487b7100000000000000000000000000000000000000000000000000000000600052604160045260246000fd5b6040519080825280601f01601f1916602001820160405280156137455781602001600182028036833780820191505090505b5090506000604051806060016040528060408152602001615e6d604091399050600181016020830160005b868110156137e95760038101905062ffffff818a015116603f8160121c168401518060081b905060ff603f83600c1c1686015116810190508060081b905060ff603f8360061c1686015116810190508060081b905060ff603f831686015116810190508060e01b90508084526004840193505050613770565b50600386066001811461380357600281146138135761381e565b613d3d60f01b600283035261381e565b603d60f81b60018303525b508484525050819450505050505b919050565b6138cd8484848460405160240161384b949392919061546f565b6040516020818303038152906040527fd5cf17d0000000000000000000000000000000000000000000000000000000007bffffffffffffffffffffffffffffffffffffffffffffffffffffffff19166020820180517bffffffffffffffffffffffffffffffffffffffffffffffffffffffff83818316178352505050506138d3565b50505050565b60008151905060006a636f6e736f6c652e6c6f679050602083016000808483855afa5050505050565b505050565b60007f000000000000000000000000000000000000000000000000000000000000000073ffffffffffffffffffffffffffffffffffffffff16634000aea07f000000000000000000000000000000000000000000000000000000000000000084866000604051602001613975929190615385565b6040516020818303038152906040526040518463ffffffff1660e01b81526004016139a2939291906152b1565b602060405180830381600087803b1580156139bc57600080fd5b505af11580156139d0573d6000803e3d6000fd5b505050506040513d601f19601f820116820180604052508101906139f491906142c9565b506000613a17846000306006600089815260200190815260200160002054613c55565b905060016006600086815260200190815260200160002054613a399190615a43565b6006600086815260200190815260200160002081905550613a5a8482613c91565b91505092915050565b613a6d8383613cc4565b613a7a6000848484613abe565b613ab9576040517f08c379a0000000000000000000000000000000000000000000000000000000008152600401613ab0906155dd565b60405180910390fd5b505050565b6000613adf8473ffffffffffffffffffffffffffffffffffffffff16613e92565b15613c48578373ffffffffffffffffffffffffffffffffffffffff1663150b7a02613b08612bd3565b8786866040518563ffffffff1660e01b8152600401613b2a949392919061523c565b602060405180830381600087803b158015613b4457600080fd5b505af1925050508015613b7557506040513d601f19601f82011682018060405250810190613b729190614357565b60015b613bf8573d8060008114613ba5576040519150601f19603f3d011682016040523d82523d6000602084013e613baa565b606091505b50600081511415613bf0576040517f08c379a0000000000000000000000000000000000000000000000000000000008152600401613be7906155dd565b60405180910390fd5b805181602001fd5b63150b7a0260e01b7bffffffffffffffffffffffffffffffffffffffffffffffffffffffff1916817bffffffffffffffffffffffffffffffffffffffffffffffffffffffff191614915050613c4d565b600190505b949350505050565b600084848484604051602001613c6e94939291906153ae565b6040516020818303038152906040528051906020012060001c9050949350505050565b60008282604051602001613ca69291906150ea565b60405160208183030381529060405280519060200120905092915050565b600073ffffffffffffffffffffffffffffffffffffffff168273ffffffffffffffffffffffffffffffffffffffff161415613d34576040517f08c379a0000000000000000000000000000000000000000000000000000000008152600401613d2b9061571d565b60405180910390fd5b613d3d81612b67565b15613d7d576040517f08c379a0000000000000000000000000000000000000000000000000000000008152600401613d74906155fd565b60405180910390fd5b613d89600083836138fc565b6001600360008473ffffffffffffffffffffffffffffffffffffffff1673ffffffffffffffffffffffffffffffffffffffff1681526020019081526020016000206000828254613dd99190615a43565b92505081905550816002600083815260200190815260200160002060006101000a81548173ffffffffffffffffffffffffffffffffffffffff021916908373ffffffffffffffffffffffffffffffffffffffff160217905550808273ffffffffffffffffffffffffffffffffffffffff16600073ffffffffffffffffffffffffffffffffffffffff167fddf252ad1be2c89b69c2b068fc378daa952ba7f163c4a11628f55a4df523b3ef60405160405180910390a45050565b600080823b905060008111915050919050565b6040518060a0016040528060608152602001606081526020016000815260200160008152602001600081525090565b828054613ee090615c18565b90600052602060002090601f016020900481019282613f025760008555613f49565b82601f10613f1b57805160ff1916838001178555613f49565b82800160010185558215613f49579182015b82811115613f48578251825591602001919060010190613f2d565b5b509050613f569190613fa6565b5090565b6040518061012001604052806000815260200160608152602001606081526020016000815260200160008152602001600081526020016000815260200160008152602001600081525090565b5b80821115613fbf576000816000905550600101613fa7565b5090565b6000613fd6613fd18461594d565b61591c565b905082815260208101848484011115613fee57600080fd5b613ff9848285615bd6565b509392505050565b60008135905061401081615da5565b92915050565b60008135905061402581615dbc565b92915050565b60008151905061403a81615dbc565b92915050565b60008135905061404f81615dd3565b92915050565b60008135905061406481615dea565b92915050565b60008151905061407981615dea565b92915050565b600082601f83011261409057600080fd5b81356140a0848260208601613fc3565b91505092915050565b6000813590506140b881615e01565b92915050565b6000815190506140cd81615e01565b92915050565b6000602082840312156140e557600080fd5b60006140f384828501614001565b91505092915050565b6000806040838503121561410f57600080fd5b600061411d85828601614001565b925050602061412e85828601614001565b9150509250929050565b60008060006060848603121561414d57600080fd5b600061415b86828701614001565b935050602061416c86828701614001565b925050604061417d868287016140a9565b9150509250925092565b6000806000806080858703121561419d57600080fd5b60006141ab87828801614001565b94505060206141bc87828801614001565b93505060406141cd878288016140a9565b925050606085013567ffffffffffffffff8111156141ea57600080fd5b6141f68782880161407f565b91505092959194509250565b6000806040838503121561421557600080fd5b600061422385828601614001565b925050602061423485828601614016565b9150509250929050565b6000806040838503121561425157600080fd5b600061425f85828601614001565b9250506020614270858286016140a9565b9150509250929050565b60008060006060848603121561428f57600080fd5b600061429d86828701614001565b93505060206142ae868287016140a9565b92505060406142bf868287016140a9565b9150509250925092565b6000602082840312156142db57600080fd5b60006142e98482850161402b565b91505092915050565b6000806040838503121561430557600080fd5b600061431385828601614040565b9250506020614324858286016140a9565b9150509250929050565b60006020828403121561434057600080fd5b600061434e84828501614055565b91505092915050565b60006020828403121561436957600080fd5b60006143778482850161406a565b91505092915050565b60006020828403121561439257600080fd5b60006143a0848285016140a9565b91505092915050565b6000602082840312156143bb57600080fd5b60006143c9848285016140be565b91505092915050565b60006143de83836143fe565b60208301905092915050565b60006143f68383614f1d565b905092915050565b61440781615b58565b82525050565b61441681615b58565b82525050565b60006144278261599d565b61443181856159e3565b935061443c8361597d565b8060005b8381101561446d57815161445488826143d2565b975061445f836159c9565b925050600181019050614440565b5085935050505092915050565b6000614485826159a8565b61448f81856159f4565b9350836020820285016144a18561598d565b8060005b858110156144dd57848403895281516144be85826143ea565b94506144c9836159d6565b925060208a019950506001810190506144a5565b50829750879550505050505092915050565b6144f881615b6a565b82525050565b61450781615b76565b82525050565b61451e61451982615b76565b615c93565b82525050565b600061452f826159b3565b6145398185615a05565b9350614549818560208601615be5565b61455281615d94565b840191505092915050565b6000614568826159be565b6145728185615a16565b9350614582818560208601615be5565b61458b81615d94565b840191505092915050565b60006145a1826159be565b6145ab8185615a27565b93506145bb818560208601615be5565b6145c481615d94565b840191505092915050565b60006145da826159be565b6145e48185615a38565b93506145f4818560208601615be5565b80840191505092915050565b600061460d600b83615a38565b91507f202d2d204e465420233a200000000000000000000000000000000000000000006000830152600b82019050919050565b600061464d603283615a27565b91507f4552433732313a207472616e7366657220746f206e6f6e20455243373231526560008301527f63656976657220696d706c656d656e74657200000000000000000000000000006020830152604082019050919050565b60006146b3601c83615a27565b91507f4552433732313a20746f6b656e20616c7265616479206d696e746564000000006000830152602082019050919050565b60006146f3603283615a38565b91507f222c20226465736372697074696f6e223a2022416e2065706963204e4654222c60008301527f2022696d616765223a2022697066733a2f2f00000000000000000000000000006020830152603282019050919050565b6000614759600e83615a38565b91507f2c20226d61785f76616c7565223a0000000000000000000000000000000000006000830152600e82019050919050565b6000614799602483615a27565b91507f4552433732313a207472616e7366657220746f20746865207a65726f2061646460008301527f72657373000000000000000000000000000000000000000000000000000000006020830152604082019050919050565b60006147ff601983615a27565b91507f4552433732313a20617070726f766520746f2063616c6c6572000000000000006000830152602082019050919050565b600061483f602b83615a27565b91507f4e6f7420656e6f756768204c494e4b202d2066696c6c20636f6e74726163742060008301527f77697468206661756365740000000000000000000000000000000000000000006020830152604082019050919050565b60006148a5602c83615a27565b91507f4552433732313a206f70657261746f7220717565727920666f72206e6f6e657860008301527f697374656e7420746f6b656e00000000000000000000000000000000000000006020830152604082019050919050565b600061490b603883615a27565b91507f4552433732313a20617070726f76652063616c6c6572206973206e6f74206f7760008301527f6e6572206e6f7220617070726f76656420666f7220616c6c00000000000000006020830152604082019050919050565b6000614971602a83615a27565b91507f4552433732313a2062616c616e636520717565727920666f7220746865207a6560008301527f726f2061646472657373000000000000000000000000000000000000000000006020830152604082019050919050565b60006149d7602983615a27565b91507f4552433732313a206f776e657220717565727920666f72206e6f6e657869737460008301527f656e7420746f6b656e00000000000000000000000000000000000000000000006020830152604082019050919050565b6000614a3d602d83615a27565b91507f4572726f723a20636861726163746572206d757374206861766520485020746f60008301527f2061747461636b20626f73732e000000000000000000000000000000000000006020830152604082019050919050565b6000614aa3600483615a38565b91507f7d205d7d000000000000000000000000000000000000000000000000000000006000830152600482019050919050565b6000614ae3602083615a27565b91507f4552433732313a206d696e7420746f20746865207a65726f20616464726573736000830152602082019050919050565b6000614b23602c83615a27565b91507f4552433732313a20617070726f76656420717565727920666f72206e6f6e657860008301527f697374656e7420746f6b656e00000000000000000000000000000000000000006020830152604082019050919050565b6000614b89602983615a27565b91507f4552433732313a207472616e73666572206f6620746f6b656e2074686174206960008301527f73206e6f74206f776e00000000000000000000000000000000000000000000006020830152604082019050919050565b6000614bef602f83615a38565b91507f7d2c207b202274726169745f74797065223a2022437269746963616c2043686160008301527f6e6365222c202276616c7565223a2000000000000000000000000000000000006020830152602f82019050919050565b6000614c55600a83615a38565b91507f7b226e616d65223a2022000000000000000000000000000000000000000000006000830152600a82019050919050565b6000614c95601f83615a27565b91507f4f6e6c7920565246436f6f7264696e61746f722063616e2066756c66696c6c006000830152602082019050919050565b6000614cd5602183615a27565b91507f4552433732313a20617070726f76616c20746f2063757272656e74206f776e6560008301527f72000000000000000000000000000000000000000000000000000000000000006020830152604082019050919050565b6000614d3b601d83615a38565b91507f646174613a6170706c69636174696f6e2f6a736f6e3b6261736536342c0000006000830152601d82019050919050565b6000614d7b603183615a27565b91507f4552433732313a207472616e736665722063616c6c6572206973206e6f74206f60008301527f776e6572206e6f7220617070726f7665640000000000000000000000000000006020830152604082019050919050565b6000614de1603d83615a38565b91507f222c202261747472696275746573223a205b207b202274726169745f7479706560008301527f223a20224865616c746820506f696e7473222c202276616c7565223a200000006020830152603d82019050919050565b6000614e47602d83615a38565b91507f7d2c207b202274726169745f74797065223a202241747461636b2044616d616760008301527f65222c202276616c7565223a20000000000000000000000000000000000000006020830152602d82019050919050565b600060a0830160008301518482036000860152614ebd828261455d565b91505060208301518482036020860152614ed7828261455d565b9150506040830151614eec60408601826150b5565b506060830151614eff60608601826150b5565b506080830151614f1260808601826150b5565b508091505092915050565b600061012083016000830151614f3660008601826150b5565b5060208301518482036020860152614f4e828261455d565b91505060408301518482036040860152614f68828261455d565b9150506060830151614f7d60608601826150b5565b506080830151614f9060808601826150b5565b5060a0830151614fa360a08601826150b5565b5060c0830151614fb660c08601826150b5565b5060e0830151614fc960e08601826150b5565b50610100830151614fde6101008601826150b5565b508091505092915050565b60006101208301600083015161500260008601826150b5565b506020830151848203602086015261501a828261455d565b91505060408301518482036040860152615034828261455d565b915050606083015161504960608601826150b5565b50608083015161505c60808601826150b5565b5060a083015161506f60a08601826150b5565b5060c083015161508260c08601826150b5565b5060e083015161509560e08601826150b5565b506101008301516150aa6101008601826150b5565b508091505092915050565b6150be81615bcc565b82525050565b6150cd81615bcc565b82525050565b6150e46150df82615bcc565b615c9d565b82525050565b60006150f6828561450d565b60208201915061510682846150d3565b6020820191508190509392505050565b600061512182614c48565b915061512d828a6145cf565b915061513882614600565b915061514482896145cf565b915061514f826146e6565b915061515b82886145cf565b915061516682614dd4565b915061517282876145cf565b915061517d8261474c565b915061518982866145cf565b915061519482614e3a565b91506151a082856145cf565b91506151ab82614be2565b91506151b782846145cf565b91506151c282614a96565b915081905098975050505050505050565b60006151de82614d2e565b91506151ea82846145cf565b915081905092915050565b600061520182856150d3565b60208201915061521182846150d3565b6020820191508190509392505050565b6000602082019050615236600083018461440d565b92915050565b6000608082019050615251600083018761440d565b61525e602083018661440d565b61526b60408301856150c4565b818103606083015261527d8184614524565b905095945050505050565b600060408201905061529d600083018561440d565b6152aa60208301846150c4565b9392505050565b60006060820190506152c6600083018661440d565b6152d360208301856150c4565b81810360408301526152e58184614524565b9050949350505050565b6000606082019050615304600083018661440d565b61531160208301856150c4565b61531e60408301846150c4565b949350505050565b60006020820190508181036000830152615340818461441c565b905092915050565b60006020820190508181036000830152615362818461447a565b905092915050565b600060208201905061537f60008301846144ef565b92915050565b600060408201905061539a60008301856144fe565b6153a760208301846150c4565b9392505050565b60006080820190506153c360008301876144fe565b6153d060208301866150c4565b6153dd604083018561440d565b6153ea60608301846150c4565b95945050505050565b6000602082019050818103600083015261540d8184614596565b905092915050565b6000608082019050818103600083015261542f8187614596565b905081810360208301526154438186614596565b905061545260408301856150c4565b81810360608301526154648184614596565b905095945050505050565b600060808201905081810360008301526154898187614596565b9050818103602083015261549d8186614596565b90506154ac60408301856150c4565b6154b960608301846150c4565b95945050505050565b600060a08201905081810360008301526154dc8188614596565b905081810360208301526154f08187614596565b90506154ff60408301866150c4565b61550c60608301856150c4565b61551960808301846150c4565b9695505050505050565b6000604082019050818103600083015261553d8185614596565b905061554c60208301846150c4565b9392505050565b6000606082019050818103600083015261556d8186614596565b905061557c60208301856150c4565b61558960408301846150c4565b949350505050565b600060808201905081810360008301526155ab8187614596565b90506155ba60208301866150c4565b6155c760408301856150c4565b6155d460608301846150c4565b95945050505050565b600060208201905081810360008301526155f681614640565b9050919050565b60006020820190508181036000830152615616816146a6565b9050919050565b600060208201905081810360008301526156368161478c565b9050919050565b60006020820190508181036000830152615656816147f2565b9050919050565b6000602082019050818103600083015261567681614832565b9050919050565b6000602082019050818103600083015261569681614898565b9050919050565b600060208201905081810360008301526156b6816148fe565b9050919050565b600060208201905081810360008301526156d681614964565b9050919050565b600060208201905081810360008301526156f6816149ca565b9050919050565b6000602082019050818103600083015261571681614a30565b9050919050565b6000602082019050818103600083015261573681614ad6565b9050919050565b6000602082019050818103600083015261575681614b16565b9050919050565b6000602082019050818103600083015261577681614b7c565b9050919050565b6000602082019050818103600083015261579681614c88565b9050919050565b600060208201905081810360008301526157b681614cc8565b9050919050565b600060208201905081810360008301526157d681614d6e565b9050919050565b600060208201905081810360008301526157f78184614ea0565b905092915050565b600060208201905081810360008301526158198184614fe9565b905092915050565b600060208201905061583660008301846150c4565b92915050565b600061012082019050615852600083018c6150c4565b8181036020830152615864818b614596565b90508181036040830152615878818a614596565b905061588760608301896150c4565b61589460808301886150c4565b6158a160a08301876150c4565b6158ae60c08301866150c4565b6158bb60e08301856150c4565b6158c96101008301846150c4565b9a9950505050505050505050565b60006080820190506158ec60008301876150c4565b6158f960208301866150c4565b61590660408301856144ef565b61591360608301846144ef565b95945050505050565b6000604051905081810181811067ffffffffffffffff8211171561594357615942615d65565b5b8060405250919050565b600067ffffffffffffffff82111561596857615967615d65565b5b601f19601f8301169050602081019050919050565b6000819050602082019050919050565b6000819050602082019050919050565b600081519050919050565b600081519050919050565b600081519050919050565b600081519050919050565b6000602082019050919050565b6000602082019050919050565b600082825260208201905092915050565b600082825260208201905092915050565b600082825260208201905092915050565b600082825260208201905092915050565b600082825260208201905092915050565b600081905092915050565b6000615a4e82615bcc565b9150615a5983615bcc565b9250827fffffffffffffffffffffffffffffffffffffffffffffffffffffffffffffffff03821115615a8e57615a8d615cd8565b5b828201905092915050565b6000615aa482615bcc565b9150615aaf83615bcc565b925082615abf57615abe615d07565b5b828204905092915050565b6000615ad582615bcc565b9150615ae083615bcc565b9250817fffffffffffffffffffffffffffffffffffffffffffffffffffffffffffffffff0483118215151615615b1957615b18615cd8565b5b828202905092915050565b6000615b2f82615bcc565b9150615b3a83615bcc565b925082821015615b4d57615b4c615cd8565b5b828203905092915050565b6000615b6382615bac565b9050919050565b60008115159050919050565b6000819050919050565b60007fffffffff0000000000000000000000000000000000000000000000000000000082169050919050565b600073ffffffffffffffffffffffffffffffffffffffff82169050919050565b6000819050919050565b82818337600083830152505050565b60005b83811015615c03578082015181840152602081019050615be8565b83811115615c12576000848401525b50505050565b60006002820490506001821680615c3057607f821691505b60208210811415615c4457615c43615d36565b5b50919050565b6000615c5582615bcc565b91507fffffffffffffffffffffffffffffffffffffffffffffffffffffffffffffffff821415615c8857615c87615cd8565b5b600182019050919050565b6000819050919050565b6000819050919050565b6000615cb282615bcc565b9150615cbd83615bcc565b925082615ccd57615ccc615d07565b5b828206905092915050565b7f4e487b7100000000000000000000000000000000000000000000000000000000600052601160045260246000fd5b7f4e487b7100000000000000000000000000000000000000000000000000000000600052601260045260246000fd5b7f4e487b7100000000000000000000000000000000000000000000000000000000600052602260045260246000fd5b7f4e487b7100000000000000000000000000000000000000000000000000000000600052604160045260246000fd5b6000601f19601f8301169050919050565b615dae81615b58565b8114615db957600080fd5b50565b615dc581615b6a565b8114615dd057600080fd5b50565b615ddc81615b76565b8114615de757600080fd5b50565b615df381615b80565b8114615dfe57600080fd5b50565b615e0a81615bcc565b8114615e1557600080fd5b5056fe506c617965722061747461636b656420626f73732e204e657720626f73732068703a2025736870206d6f643a2025732c2061747461636b206d6f643a2025732c2072616e646f6d206e756d6265722069732025734142434445464748494a4b4c4d4e4f505152535455565758595a6162636465666768696a6b6c6d6e6f707172737475767778797a303132333435363738392b2f426f73732061747461636b656420706c617965722e204e657720706c617965722068703a2025730a4d696e746564204e465420772f20746f6b656e496420257320616e6420636861726163746572496e646578202573506c617965722061747461636b656420626f73732e20437269746963616c2048697421204e657720626f73732068703a2025730a506c6179657220772f206368617261637465722025732061626f757420746f2061747461636b2e2048617320257320485020616e64202573204144a2646970667358221220ecc80b1756cb3720d8f3e81f4a07e8eb3ff7e4c1fd4880330a785ec7d65a405e64736f6c63430008000033446f6e6520696e697469616c697a696e6720257320772f2048502025732c20696d67202573446f6e6520696e697469616c697a696e6720626f737320257320772f2048502025732c20696d67202573",
  "linkReferences": {},
  "deployedLinkReferences": {}
}